0228010010999992016010100004+70933-008667FM-12+000999999V0201901N002019999999N010000199+00271+00131099721ADDAA106000091AY121021AY221021GA1051+004501071GE19MSL   +99999+99999GF105991051999004501999999MA1999999099601MD1990021+9999MW1021OD139901001999REMSYN07601001 11460 51902 10027 20013 39960 49972 50002 60001 70222 85600 333 91110=
0089010010999992016010101004+70933-008667FM-12+000999999V0201701N001019999999N999999999+00261+00121099741ADDMA1999999099621MD1310031+9999REMSYN04801001 46/// /1701 10026 20012 39962 49974 53003=
0089010010999992016010102004+70933-008667FM-12+000999999V0201001N003019999999N999999999+00251+00121099731ADDMA1999999099611MD1510011+9999REMSYN04801001 46/// /1003 10025 20012 39961 49973 55001=
0089010010999992016010103004+70933-008667FM-12+000999999V0203401N001019999999N999999999+00211+00071099671ADDMA1999999099551MD1810051+9999REMSYN04801001 46/// /3401 10021 20007 39955 49967 58005=
0089010010999992016010104004+70933-008667FM-12+000999999V0200101N003019999999N999999999+00211+00061099641ADDMA1999999099521MD1810101+9999REMSYN04801001 46/// /0103 10021 20006 39952 49964 58010=
0089010010999992016010105004+70933-008667FM-12+000999999V0200101N004019999999N999999999+00221+00021099591ADDMA1999999099471MD1710141+9999REMSYN04801001 46/// /0104 10022 20002 39947 49959 57014=
0309010010999992016010106004+70933-008667FM-12+000999999V0200401N001019999999N008000199+00191-00021099571ADDAA112000091AA224000091AJ199991999999999AY121021AY211021GA1041+004501071GA2999+999999001GE19MSL   +99999+99999GF107991041999004501999999IA1269KA1240N+00171MA1999999099451MD1810101+9999MW1101OD139900501999REMSYN09401001 11458 70401 10019 21002 39945 49957 58010 60002 71021 84601 333 20017 42999 70000 91105=
0071010010999992016010107004+70939-008669FM-12+001099999V0201091N0016199999999999999999+00171-00031099551ADDKA1010M+00211KA2010N+00101MA1999999099431MD1610091+9999REMSYN004BUFR
0089010010999992016010108004+70933-008667FM-12+000999999V0202201N004019999999N999999999+00181-00041099551ADDMA1999999099431MD1510041+9999REMSYN04801001 46/// /2204 10018 21004 39943 49955 55004=
0203010010999992016010109004+70933-008667FM-12+000999999V0202301N003019999999N010000199+00211-00101099581ADDAY121021AY221021GA1041+008001061GA2999+999999001GE19MSL   +99999+99999GF105991041999008001999999MA1999999099461MD1510011+9999MW1021REMSYN06001001 41560 52303 10021 21010 39946 49958 55001 70222 84501=
0089010010999992016010110004+70933-008667FM-12+000999999V0201901N002019999999N999999999+00211-00071099591ADDMA1999999099471MD1210041+9999REMSYN04801001 46/// /1902 10021 21007 39947 49959 52004=
0089010010999992016010111004+70933-008667FM-12+000999999V0202901N002019999999N999999999+00211-00071099611ADDMA1999999099491MD1210051+9999REMSYN04801001 46/// /2902 10021 21007 39949 49961 52005=
0264010010999992016010112004+70933-008667FM-12+000999999V0203501N005019999999N020000199+00171-00041099581ADDAA106000091AY121021AY211021GA1011+004501071GA2999+999999001GE19MSL   +99999+99999GF104991011999004501999999MA1999999099461MD1990001+9999MW1021OD139900901999SA1+0251REMSYN08801001 11470 43505 10017 21004 39946 49958 50000 60001 70221 81601 222// 00025 333 91109=
0089010010999992016010113004+70933-008667FM-12+000999999V0203601N002019999999N999999999+00131-00081099651ADDMA1999999099531MD1310061+9999REMSYN04801001 46/// /3602 10013 21008 39953 49965 53006=
0089010010999992016010114004+70933-008667FM-12+000999999V0202601N004019999999N999999999+00201-00121099621ADDMA1999999099501MD1310021+9999REMSYN04801001 46/// /2604 10020 21012 39950 49962 53002=
0219010010999992016010115004+70933-008667FM-12+000999999V0203001N001019999999N010000199+00131-00171099631ADDAY121021AY211021GA1011+004501071GA2999+999999031GA3999+999999001GE19MSL   +99999+99999GF107991011999004501999999MA1999999099511MD1990051+9999MW1021REMSYN06001001 41460 73001 10013 21017 39951 49963 50005 70221 81671=
0089010010999992016010116004+70933-008667FM-12+000999999V0200101N002019999999N999999999+00101-00101099651ADDMA1999999099531MD1510011+9999REMSYN04801001 46/// /0102 10010 21010 39953 49965 55001=
0089010010999992016010117004+70933-008667FM-12+000999999V0200201N001019999999N999999999+00091-00071099691ADDMA1999999099571MD1310071+9999REMSYN04801001 46/// /0201 10009 21007 39957 49969 53007=
0227010010999992016010118004+70939-008669FM-12+001099999V0203481N0006100100199005000199+00091-00041099751ADDAA112999999AY121061AY211061GA1081+001001071GA2999+999999101GA3999+999999101GE19MSL   +99999+99999GF108991081999001001999999KA1120M+00241KA2120N+00071MA1999999099631MD1310121+9999MW1101OD130600921999UA19999999049REMSYN004BUFR
0089010010999992016010119004+70933-008667FM-12+000999999V0202701N002019999999N999999999+00071-00061099811ADDMA1999999099691MD1310151+9999REMSYN04801001 46/// /2702 10007 21006 39969 49981 53015=
0089010010999992016010120004+70933-008667FM-12+000999999V0203001N001019999999N999999999+00031-00091099881ADDMA1999999099761MD1310181+9999REMSYN04801001 46/// /3001 10003 21009 39976 49988 53018=
0089010010999992016010121004+70933-008667FM-12+000999999V0202101N005019999999N999999999+00101+00001099971ADDMA1999999099851MD1310221+9999REMSYN04801001 46/// /2105 10010 21000 39985 49997 53022=
0089010010999992016010122004+70933-008667FM-12+000999999V0202001N005019999999N999999999+00141+00051100061ADDMA1999999099941MD1310251+9999REMSYN04801001 46/// /2005 10014 20005 39994 40006 53025=
0093010010999992016010123004+70939-008669FM-12+001099999V0202041N0059199999999999999999+00171+00091100161ADDKA1010M+00171KA2010N+00141MA1999999100041MD1310281+9999OC100801OD130100801999REMSYN004BUFR
0247010010999992016010200004+70933-008667FM-12+000999999V0202101N008019999999N005000199+00181+00061100251ADDAA106000091AY121021AY221021GA1081+004501071GE19MSL   +99999+99999GF108991081999004501999999MA1999999100131MD1310281+9999MW1101OD139901101999REMSYN07601001 11450 82108 10018 20006 30013 40025 53028 69901 71022 886// 333 91111=EQDQ01  00002PRCP06
0089010010999992016010201004+70933-008667FM-12+000999999V0202101N007019999999N999999999+00191+00021100321ADDMA1999999100201MD1210261+9999REMSYN04801001 46/// /2107 10019 20002 30020 40032 52026=
0089010010999992016010202004+70933-008667FM-12+000999999V0202101N008019999999N999999999+00211+00021100381ADDMA1999999100261MD1210221+9999REMSYN04801001 46/// /2108 10021 20002 30026 40038 52022=
0089010010999992016010203004+70933-008667FM-12+000999999V0202001N010019999999N999999999+00201+00031100451ADDMA1999999100331MD1210201+9999REMSYN04801001 46/// /2010 10020 20003 30033 40045 52020=
0089010010999992016010204004+70933-008667FM-12+000999999V0201901N006019999999N999999999+00231+00101100481ADDMA1999999100361MD1210171+9999REMSYN04801001 46/// /1906 10023 20010 30036 40048 52017=
0089010010999992016010205004+70933-008667FM-12+000999999V0201701N005019999999N999999999+00231+00031100491ADDMA1999999100371MD1990121+9999REMSYN04801001 46/// /1705 10023 20003 30037 40049 50012=
0344010010999992016010206004+70933-008667FM-12+000999999V0201401N003019999999N010000199+00231+00081100461ADDAA112000091AA224000091AJ199991999999999AY121021AY221021GA1051+004501071GA2999+999999041GE19MSL   +99999+99999GF106991051999004501999999IA1269KA1240N+00031MA1999999100341MD1990021+9999MW1021OD139901201999REMSYN09401001 11460 61403 10023 20008 30034 40046 50002 69902 70222 85610 333 20003 42999 79999 91112=EQDQ01  00002PRCP12Q02  00002PRCP24
0089010010999992016010207004+70933-008667FM-12+000999999V0200901N006019999999N999999999+00251+00091100391ADDMA1999999100271MD1810101+9999REMSYN04801001 46/// /0906 10025 20009 30027 40039 58010=
0089010010999992016010208004+70933-008667FM-12+000999999V0201301N009019999999N999999999+00141+00031100351ADDMA1999999100231MD1810151+9999REMSYN04801001 46/// /1309 10014 20003 30023 40035 58015=
0187010010999992016010209004+70933-008667FM-12+000999999V0201001N009019999999N010000199+00261+00181100231ADDAY161021AY221021GA1081+004501051GE19MSL   +99999+99999GF108991081999004501999999MA1999999100111MD1810241+9999MW1631REMSYN06001001 41460 81009 10026 20018 30011 40023 58024 76362 8802/=
0089010010999992016010210004+70933-008667FM-12+000999999V0201601N015019999999N999999999+00401+00211100221ADDMA1999999100101MD1610171+9999REMSYN04801001 46/// /1615 10040 20021 30010 40022 56017=
0089010010999992016010211004+70933-008667FM-12+000999999V0201601N013019999999N999999999+00351+00181100231ADDMA1999999100111MD1610121+9999REMSYN04801001 46/// /1613 10035 20018 30011 40023 56012=
0264010010999992016010212004+70933-008667FM-12+000999999V0201701N014019999999N005000199+00351+00201100231ADDAA106002031AY161021AY221021GA1021+004501071GA2999+999999051GE19MSL   +99999+99999GF108991021999004501999999MA1999999100111MD1410001+9999MW1631OD139902101999SA1+0251REMSYN08801001 11450 81714 10035 20020 30011 40023 54000 60021 76362 8272/ 222// 00025 333 91121=
0089010010999992016010213004+70933-008667FM-12+000999999V0201801N013019999999N999999999+00301+00161100201ADDMA1999999100081MD1810021+9999REMSYN04801001 46/// /1813 10030 20016 30008 40020 58002=
0089010010999992016010214004+70933-008667FM-12+000999999V0201801N010019999999N999999999+00191+00071100201ADDMA1999999100081MD1710021+9999REMSYN04801001 46/// /1810 10019 20007 30008 40020 57002=
0187010010999992016010215004+70933-008667FM-12+000999999V0201801N009019999999N005000199+00231+00111100201ADDAY161021AY221021GA1071+002501051GE19MSL   +99999+99999GF107991071999002501999999MA1999999100081MD1710031+9999MW1631REMSYN06001001 41350 71809 10023 20011 30008 40020 57003 76362 8702/=
0089010010999992016010216004+70933-008667FM-12+000999999V0201801N011019999999N999999999+00271+00121100241ADDMA1999999100121MD1310041+9999REMSYN04801001 46/// /1811 10027 20012 30012 40024 53004=
0089010010999992016010217004+70933-008667FM-12+000999999V0201901N010019999999N999999999+00271+00061100301ADDMA1999999100181MD1310101+9999REMSYN04801001 46/// /1910 10027 20006 30018 40030 53010=
0247010010999992016010218004+70933-008667FM-12+000999999V0201901N011019999999N020000199+00251+00001100391ADDAA112004031AY161021AY211021GA1021+004501071GE19MSL   +99999+99999GF102991021999004501999999KA1120M+00411MA1999999100271MD1310191+9999MW1011OD139901901999REMSYN08201001 11470 21911 10025 20000 30027 40039 53019 60042 70161 82700 333 10041 91119=
0089010010999992016010219004+70933-008667FM-12+000999999V0202001N012019999999N999999999+00231-00021100461ADDMA1999999100341MD1310221+9999REMSYN04801001 46/// /2012 10023 21002 30034 40046 53022=
0089010010999992016010220004+70933-008667FM-12+000999999V0202001N012019999999N999999999+00211-00071100541ADDMA1999999100421MD1210241+9999REMSYN04801001 46/// /2012 10021 21007 30042 40054 52024=
0089010010999992016010221004+70933-008667FM-12+000999999V0202101N010019999999N999999999+00201-00141100591ADDMA1999999100471MD1210201+9999REMSYN04801001 46/// /2110 10020 21014 30047 40059 52020=
0089010010999992016010222004+70933-008667FM-12+000999999V0202001N012019999999N999999999+00211-00101100651ADDMA1999999100531MD1210191+9999REMSYN04801001 46/// /2012 10021 21010 30053 40065 52019=
0093010010999992016010223004+70939-008669FM-12+001099999V0202151N0094199999999999999999+00171-00181100751ADDKA1010M+00211KA2010N+00181MA1999999100631MD1310221+9999OC101351OD130101491999REMSYN004BUFR
0247010010999992016010300004+70933-008667FM-12+000999999V0202101N005019999999N020000199+00161-00241100871ADDAA106000091AY101021AY201021GA1999+999999001GE19MSL   +99999+99999GF101991001999999999999999MA1999999100751MD1310281+9999MW1021OD139901601999REMSYN07601001 11970 12105 10016 21024 30075 40087 53028 60001 70200 80002 333 91116=EQDQ01    003SCCGA1
0089010010999992016010301004+70933-008667FM-12+000999999V0201901N006019999999N999999999+00161-00181100931ADDMA1999999100811MD1210281+9999REMSYN04801001 46/// /1906 10016 21018 30081 40093 52028=
0089010010999992016010302004+70933-008667FM-12+000999999V0202001N006019999999N999999999+00131-00111101011ADDMA1999999100891MD1110251+9999REMSYN04801001 46/// /2006 10013 21011 30089 40101 51025=
0089010010999992016010303004+70933-008667FM-12+000999999V0202101N005019999999N999999999+00071-00171101061ADDMA1999999100941MD1210191+9999REMSYN04801001 46/// /2105 10007 21017 30094 40106 52019=
0089010010999992016010304004+70933-008667FM-12+000999999V0202301N003019999999N999999999+00001-00251101121ADDMA1999999101001MD1210191+9999REMSYN04801001 46/// /2303 10000 21025 30100 40112 52019=
0089010010999992016010305004+70933-008667FM-12+000999999V0202101N002019999999N999999999+00001-00261101141ADDMA1999999101021MD1210141+9999REMSYN04801001 46/// /2102 10000 21026 30102 40114 52014=
0293010010999992016010306004+70933-008667FM-12+000999999V0209999C999999999999N008000199-00091-00301101211ADDAA112000091AA224003531AJ199991999999999AY101021AY201021GA1021+004501071GE19MSL   +99999+99999GF102991021999004501999999IA1269KA1240N-00121MA1999999101091MD1310151+9999MW1101OD139900901999REMSYN09401001 11458 20000 11009 21030 30109 40121 53015 60002 71000 82600 333 21012 42999 70035 91109=
0089010010999992016010307004+70933-008667FM-12+000999999V0203101N001019999999N999999999-00121-00301101241ADDMA1999999101121MD1210121+9999REMSYN04801001 46/// /3101 11012 21030 30112 40124 52012=
0089010010999992016010308004+70933-008667FM-12+000999999V0203401N001019999999N999999999-00131-00301101261ADDMA1999999101141MD1110121+9999REMSYN04801001 46/// /3401 11013 21030 30114 40126 51012=
0206010010999992016010309004+70933-008667FM-12+000999999V0200101N002019999999N010000199-00101-00261101321ADDAY101021AY201021GA1999+999999001GE19MSL   +99999+99999GF103991001999999999999999MA1999999101201MD1310111+9999MW1021REMSYN06001001 41960 30102 11010 21026 30120 40132 53011 70200 80001=EQDQ01    003SCCGA1
0089010010999992016010310004+70933-008667FM-12+000999999V0203601N002019999999N999999999-00011-00171101351ADDMA1999999101231MD1310111+9999REMSYN04801001 46/// /3602 11001 21017 30123 40135 53011=
0089010010999992016010311004+70933-008667FM-12+000999999V0200101N004019999999N999999999+00001-00171101341ADDMA1999999101221MD1110081+9999REMSYN04801001 46/// /0104 10000 21017 30122 40134 51008=
0264010010999992016010312004+70933-008667FM-12+000999999V0203601N003019999999N008000199+00031-00161101361ADDAA106000091AY111021AY201021GA1031+004501071GA2999+999999001GE19MSL   +99999+99999GF105991031999004501999999MA1999999101241MD1210041+9999MW1101OD139900601999SA1+0231REMSYN08801001 11458 53603 10003 21016 30124 40136 52004 60001 71010 83602 222// 00023 333 91106=
0089010010999992016010313004+70933-008667FM-12+000999999V0209999C999999999999N999999999+00061-00141101351ADDMA1999999101231MD1410001+9999REMSYN04801001 46/// /0000 10006 21014 30123 40135 54000=
0089010010999992016010314004+70933-008667FM-12+000999999V0200901N004019999999N999999999+00101-00071101331ADDMA1999999101211MD1710011+9999REMSYN04801001 46/// /0904 10010 21007 30121 40133 57001=
0203010010999992016010315004+70933-008667FM-12+000999999V0201201N003019999999N008000199+00121-00061101331ADDAY171021AY221021GA1041+002501071GA2999+999999051GE19MSL   +99999+99999GF108991041999002501999999MA1999999101211MD1710031+9999MW1231REMSYN06001001 41358 81203 10012 21006 30121 40133 57003 72372 8462/=
0089010010999992016010316004+70933-008667FM-12+000999999V0202301N002019999999N999999999+00081-00101101331ADDMA1999999101211MD1710021+9999REMSYN04801001 46/// /2302 10008 21010 30121 40133 57002=
0089010010999992016010317004+70933-008667FM-12+000999999V0200401N001019999999N999999999+00061-00091101351ADDMA1999999101231MD1210021+9999REMSYN04801001 46/// /0401 10006 21009 30123 40135 52002=
0247010010999992016010318004+70933-008667FM-12+000999999V0200101N001019999999N001600199+00081-00071101371ADDAA112000831AY171021AY221021GA1081+004501051GE19MSL   +99999+99999GF108991081999004501999999KA1120M+00121MA1999999101251MD1210041+9999MW1731OD139900601999REMSYN08201001 11416 80101 10008 21007 30125 40137 52004 69982 77372 8802/ 333 10012 91106=
0089010010999992016010319004+70933-008667FM-12+000999999V0209999C999999999999N999999999+00121-00031101381ADDMA1999999101261MD1210051+9999REMSYN04801001 46/// /0000 10012 21003 30126 40138 52005=
0089010010999992016010320004+70933-008667FM-12+000999999V0202501N001019999999N999999999+00121-00031101411ADDMA1999999101291MD1310061+9999REMSYN04801001 46/// /2501 10012 21003 30129 40141 53006=
0089010010999992016010321004+70933-008667FM-12+000999999V0209999C999999999999N999999999+00161+00021101421ADDMA1999999101301MD1210051+9999REMSYN04801001 46/// /0000 10016 20002 30130 40142 52005=
0089010010999992016010322004+70933-008667FM-12+000999999V0200201N001019999999N999999999+00161+00031101451ADDMA1999999101331MD1210071+9999REMSYN04801001 46/// /0201 10016 20003 30133 40145 52007=
0071010010999992016010323004+70939-008669FM-12+001099999V0200231N0003199999999999999999+00151+00041101461ADDKA1010M+00161KA2010N+00131MA1999999101341MD1210051+9999REMSYN004BUFR
0184010010999992016010400004+70933-008667FM-12+000999999V0200701N00101001201CN000400199+00171+00051101471ADDAA106000831AY171021AY261021GF109991999999999999999999MA1999999101351MD1210061+9999MW1451OD139900301999REMSYN07001001 11/04 90701 10017 20005 30135 40147 52006 69981 74576 333 91103=
0089010010999992016010401004+70933-008667FM-12+000999999V0203601N002019999999N999999999+00171+00061101491ADDMA1999999101371MD1210051+9999REMSYN04801001 46/// /3602 10017 20006 30137 40149 52005=
0089010010999992016010402004+70933-008667FM-12+000999999V0200101N002019999999N999999999+00171+00081101521ADDMA1999999101401MD1210061+9999REMSYN04801001 46/// /0102 10017 20008 30140 40152 52006=
0089010010999992016010403004+70933-008667FM-12+000999999V0202201N001019999999N999999999+00171+00081101511ADDMA1999999101391MD1990041+9999REMSYN04801001 46/// /2201 10017 20008 30139 40151 50004=
0089010010999992016010404004+70933-008667FM-12+000999999V0201801N001019999999N999999999+00191+00101101521ADDMA1999999101401MD1990031+9999REMSYN04801001 46/// /1801 10019 20010 30140 40152 50003=
0089010010999992016010405004+70933-008667FM-12+000999999V0202601N002019999999N999999999+00161+00071101541ADDMA1999999101421MD1310011+9999REMSYN04801001 46/// /2602 10016 20007 30142 40154 53001=
0249010010999992016010406004+70933-008667FM-12+000999999V0201701N00101000601CN000300199+00201+00111101571ADDAA112001031AA224001831AJ199991999999999AY161021AY241021GF109991999999999999999999IA1269KA1240N+00081MA1999999101451MD1210061+9999MW1451OD139900501999REMSYN08801001 11/03 91701 10020 20011 30145 40157 52006 60012 74564 333 20008 42999 70018 91105=
0089010010999992016010407004+70933-008667FM-12+000999999V0202301N001019999999N999999999+00171+00081101591ADDMA1999999101471MD1210071+9999REMSYN04801001 46/// /2301 10017 20008 30147 40159 52007=
0089010010999992016010408004+70933-008667FM-12+000999999V0209999C999999999999N999999999+00181+00091101621ADDMA1999999101501MD1210091+9999REMSYN04801001 46/// /0000 10018 20009 30150 40162 52009=
0187010010999992016010409004+70933-008667FM-12+000999999V0209999C999999999999N001600199+00181+00091101641ADDAY161021AY251021GA1081+001501071GE19MSL   +99999+99999GF108991081999001501999999MA1999999101521MD1210071+9999MW1501REMSYN06001001 41216 80000 10018 20009 30152 40164 52007 75065 886//=
0089010010999992016010410004+70933-008667FM-12+000999999V0203601N001019999999N999999999+00171+00081101661ADDMA1999999101541MD1210071+9999REMSYN04801001 46/// /3601 10017 20008 30154 40166 52007=
0089010010999992016010411004+70933-008667FM-12+000999999V0202301N001019999999N999999999+00171+00081101651ADDMA1999999101531MD1990031+9999REMSYN04801001 46/// /2301 10017 20008 30153 40165 50003=
0204010010999992016010412004+70933-008667FM-12+000999999V0201701N00201000601CN000200199+00191+00101101671ADDAA106000731AY161021AY251021GF109991999999999999999999MA1999999101551MD1210021+9999MW1451OD139900301999SA1+0231REMSYN08201001 11/02 91702 10019 20010 30155 40167 52002 69971 74565 222// 00023 333 91103=
0089010010999992016010413004+70933-008667FM-12+000999999V0202001N003019999999N999999999+00191+00111101691ADDMA1999999101571MD1310031+9999REMSYN04801001 46/// /2003 10019 20011 30157 40169 53003=
0089010010999992016010414004+70933-008667FM-12+000999999V0201601N003019999999N999999999+00171+00081101701ADDMA1999999101581MD1210051+9999REMSYN04801001 46/// /1603 10017 20008 30158 40170 52005=
0187010010999992016010415004+70933-008667FM-12+000999999V0203501N001019999999N003500199+00161+00071101671ADDAY161021AY241021GA1071+004501071GE19MSL   +99999+99999GF108991071999004501999999MA1999999101551MD1990011+9999MW1601REMSYN06001001 41435 83501 10016 20007 30155 40167 50001 76064 876//=
0089010010999992016010416004+70933-008667FM-12+000999999V0209999C999999999999N999999999+00141+00041101681ADDMA1999999101561MD1710011+9999REMSYN04801001 46/// /0000 10014 20004 30156 40168 57001=
0089010010999992016010417004+70933-008667FM-12+000999999V0202501N001019999999N999999999+00201+00101101691ADDMA1999999101571MD1510001+9999REMSYN04801001 46/// /2501 10020 20010 30157 40169 55000=
0247010010999992016010418004+70933-008667FM-12+000999999V0202301N003019999999N010000199+00191+00081101721ADDAA112000731AY161021AY241021GA1071+004501071GE19MSL   +99999+99999GF107991071999004501999999KA1120M+00211MA1999999101601MD1210041+9999MW1021OD139900501999REMSYN08201001 11460 72303 10019 20008 30160 40172 52004 69972 70264 876// 333 10021 91105=
0089010010999992016010419004+70933-008667FM-12+000999999V0202201N003019999999N999999999+00151+00041101731ADDMA1999999101611MD1210061+9999REMSYN04801001 46/// /2203 10015 20004 30161 40173 52006=
0089010010999992016010420004+70933-008667FM-12+000999999V0202901N005019999999N999999999+00111+00001101731ADDMA1999999101611MD1210041+9999REMSYN04801001 46/// /2905 10011 21000 30161 40173 52004=
0089010010999992016010421004+70933-008667FM-12+000999999V0202701N004019999999N999999999+00141+00031101721ADDMA1999999101601MD1510001+9999REMSYN04801001 46/// /2704 10014 20003 30160 40172 55000=
0089010010999992016010422004+70933-008667FM-12+000999999V0201801N004019999999N999999999+00151+00011101701ADDMA1999999101581MD1510031+9999REMSYN04801001 46/// /1804 10015 20001 30158 40170 55003=
0089010010999992016010423004+70933-008667FM-12+000999999V0202201N003019999999N999999999+00121-00011101681ADDMA1999999101561MD1610051+9999REMSYN04801001 46/// /2203 10012 21001 30156 40168 56005=
0244010010999992016010500004+70933-008667FM-12+000999999V0203301N005019999999N010000199+00081-00051101671ADDAA106000091AY121021AY221021GA1061+004501061GA2999+999999021GE19MSL   +99999+99999GF108991061999004501999999MA1999999101551MD1710041+9999MW1021OD139901201999REMSYN07601001 11460 83305 10008 21005 30155 40167 57004 60001 70222 86507 333 91112=
0089010010999992016010501004+70933-008667FM-12+000999999V0202101N004019999999N999999999+00131+00001101671ADDMA1999999101551MD1710031+9999REMSYN04801001 46/// /2104 10013 20000 30155 40167 57003=
0089010010999992016010502004+70933-008667FM-12+000999999V0202301N003019999999N999999999+00121-00011101661ADDMA1999999101541MD1710021+9999REMSYN04801001 46/// /2303 10012 21001 30154 40166 57002=
0089010010999992016010503004+70933-008667FM-12+000999999V0201901N003019999999N999999999+00181+00011101651ADDMA1999999101531MD1710021+9999REMSYN04801001 46/// /1903 10018 20001 30153 40165 57002=
0089010010999992016010504004+70933-008667FM-12+000999999V0200101N001019999999N999999999+00211-00031101621ADDMA1999999101501MD1710051+9999REMSYN04801001 46/// /0101 10021 21003 30150 40162 57005=
0089010010999992016010505004+70933-008667FM-12+000999999V0200101N003019999999N999999999+00181-00061101631ADDMA1999999101511MD1710031+9999REMSYN04801001 46/// /0103 10018 21006 30151 40163 57003=
0293010010999992016010506004+70933-008667FM-12+000999999V0202601N002019999999N010000199+00141-00061101631ADDAA112000091AA224000731AJ199991999999999AY121021AY221021GA1071+004501061GE19MSL   +99999+99999GF107991071999004501999999IA1179KA1240N+00071MA1999999101511MD1510021+9999MW1021OD139900801999REMSYN09401001 11460 72602 10014 21006 30151 40163 55002 60002 70222 875// 333 20007 40999 70007 91108=
0089010010999992016010507004+70933-008667FM-12+000999999V0203501N003019999999N999999999+00161-00071101621ADDMA1999999101501MD1990001+9999REMSYN04801001 46/// /3503 10016 21007 30150 40162 50000=
0089010010999992016010508004+70933-008667FM-12+000999999V0203501N008019999999N999999999+00061-00081101631ADDMA1999999101511MD1510001+9999REMSYN04801001 46/// /3508 10006 21008 30151 40163 55000=
0187010010999992016010509004+70933-008667FM-12+000999999V0201201N003019999999N010000199+00141-00141101621ADDAY121021AY211021GA1041+004501061GE19MSL   +99999+99999GF104991041999004501999999MA1999999101501MD1510011+9999MW1021REMSYN06001001 41460 41203 10014 21014 30150 40162 55001 70221 84500=
0089010010999992016010510004+70933-008667FM-12+000999999V0201101N001019999999N999999999+00151-00091101651ADDMA1999999101531MD1310031+9999REMSYN04801001 46/// /1101 10015 21009 30153 40165 53003=
0089010010999992016010511004+70933-008667FM-12+000999999V0200701N003019999999N999999999+00181-00081101631ADDMA1999999101511MD1510001+9999REMSYN04801001 46/// /0703 10018 21008 30151 40163 55000=
0248010010999992016010512004+70933-008667FM-12+000999999V0200301N001019999999N020000199+00141-00081101621ADDAA106000091AY121021AY211021GA1071+004501081GE19MSL   +99999+99999GF107991071999004501999999MA1999999101501MD1990001+9999MW1021OD139901101999SA1+0221REMSYN08801001 11470 70301 10014 21008 30150 40162 50000 60001 70221 878// 222// 00022 333 91111=
0089010010999992016010513004+70933-008667FM-12+000999999V0200801N006019999999N999999999+00181+00011101591ADDMA1999999101471MD1710051+9999REMSYN04801001 46/// /0806 10018 20001 30147 40159 57005=
0089010010999992016010514004+70933-008667FM-12+000999999V0200801N006019999999N999999999+00181-00071101591ADDMA1999999101471MD1710041+9999REMSYN04801001 46/// /0806 10018 21007 30147 40159 57004=
0187010010999992016010515004+70933-008667FM-12+000999999V0200901N006019999999N020000199+00171-00151101591ADDAY121021AY221021GA1061+008001081GE19MSL   +99999+99999GF106991061999008001999999MA1999999101471MD1710031+9999MW1021REMSYN06001001 41570 60906 10017 21015 30147 40159 57003 70222 86800=
0089010010999992016010516004+70933-008667FM-12+000999999V0201101N008019999999N999999999+00161-00311101581ADDMA1999999101461MD1710021+9999REMSYN04801001 46/// /1108 10016 21031 30146 40158 57002=
0108010010999992016010517004+70933-008667FM-12+000999999V0200801N007019999999N999999999+00141-00391101581ADDMA1999999101461MD1790019+9999REMSYN04801001 46/// /0807 10014 21039 30146 40158 54001=EQDQ01.1    3APC3  
0247010010999992016010518004+70933-008667FM-12+000999999V0200801N005019999999N020000199+00141-00341101571ADDAA112000091AY121021AY221021GA1071+012501061GE19MSL   +99999+99999GF107991071999012501999999KA1120M+00231MA1999999101451MD1710021+9999MW1021OD139901001999REMSYN08201001 11670 70805 10014 21034 30145 40157 57002 60002 70222 875// 333 10023 91110=
0089010010999992016010519004+70933-008667FM-12+000999999V0200701N006019999999N999999999+00161-00311101561ADDMA1999999101441MD1710021+9999REMSYN04801001 46/// /0706 10016 21031 30144 40156 57002=
0089010010999992016010520004+70933-008667FM-12+000999999V0200801N006019999999N999999999+00161-00221101521ADDMA1999999101401MD1710061+9999REMSYN04801001 46/// /0806 10016 21022 30140 40152 57006=
0089010010999992016010521004+70933-008667FM-12+000999999V0200101N003019999999N999999999+00061-00171101521ADDMA1999999101401MD1710051+9999REMSYN04801001 46/// /0103 10006 21017 30140 40152 57005=
0089010010999992016010522004+70933-008667FM-12+000999999V0200801N008019999999N999999999+00151-00141101481ADDMA1999999101361MD1710081+9999REMSYN04801001 46/// /0808 10015 21014 30136 40148 57008=
0093010010999992016010523004+70939-008669FM-12+001099999V0200731N0056199999999999999999+00141-00221101451ADDKA1010M+00161KA2010N+00111MA1999999101331MD1710071+9999OC100751OD130101061999REMSYN004BUFR
0241010010999992016010600004+70933-008667FM-12+000999999V0203601N005019999999N015000199+00141-00351101391ADDAA106000091AY171021AY221021GA1081+012501061GE19MSL   +99999+99999GF108991081999012501999999MA1999999101271MD1810131+9999OD139901201999REMSYN07601001 11665 83605 10014 21035 30127 40139 58013 69901 77872 885// 333 91112=EQDQ01  00002PRCP06
0089010010999992016010601004+70933-008667FM-12+000999999V0200701N008019999999N999999999+00161-00331101341ADDMA1999999101221MD1810141+9999REMSYN04801001 46/// /0708 10016 21033 30122 40134 58014=
0089010010999992016010602004+70933-008667FM-12+000999999V0200601N007019999999N999999999+00141-00311101331ADDMA1999999101211MD1610121+9999REMSYN04801001 46/// /0607 10014 21031 30121 40133 56012=
0089010010999992016010603004+70933-008667FM-12+000999999V0200201N004019999999N999999999+00121-00341101291ADDMA1999999101171MD1810091+9999REMSYN04801001 46/// /0204 10012 21034 30117 40129 58009=
0089010010999992016010604004+70933-008667FM-12+000999999V0200501N004019999999N999999999+00121-00361101241ADDMA1999999101121MD1810091+9999REMSYN04801001 46/// /0504 10012 21036 30112 40124 58009=
0089010010999992016010605004+70933-008667FM-12+000999999V0200801N011019999999N999999999+00121-00341101221ADDMA1999999101101MD1710121+9999REMSYN04801001 46/// /0811 10012 21034 30110 40122 57012=
0328010010999992016010606004+70933-008667FM-12+000999999V0200601N008019999999N020000199+00161-00341101161ADDAA112000091AA224000091AJ199991999999999AY121021AY221021GA1071+012501061GE19MSL   +99999+99999GF107991071999012501999999IA1179KA1240N+00051MA1999999101041MD1710141+9999MW1021OD139901401999REMSYN09401001 11670 70608 10016 21034 30104 40116 57014 69902 70222 875// 333 20005 40999 79999 91114=EQDQ01  00002PRCP12Q02  00002PRCP24
0089010010999992016010607004+70933-008667FM-12+000999999V0200601N009019999999N999999999+00151-00351101121ADDMA1999999101001MD1710121+9999REMSYN04801001 46/// /0609 10015 21035 30100 40112 57012=
0089010010999992016010608004+70933-008667FM-12+000999999V0200601N009019999999N999999999+00161-00371101131ADDMA1999999101011MD1510081+9999REMSYN04801001 46/// /0609 10016 21037 30101 40113 55008=
0187010010999992016010609004+70933-008667FM-12+000999999V0200601N009019999999N015000199+00161-00291101101ADDAY121021AY221021GA1071+012501061GE19MSL   +99999+99999GF107991071999012501999999MA1999999100981MD1710051+9999MW1021REMSYN06001001 41665 70609 10016 21029 30098 40110 57005 70222 875//=
0089010010999992016010610004+70933-008667FM-12+000999999V0200701N010019999999N999999999+00161-00111101061ADDMA1999999100941MD1810061+9999REMSYN04801001 46/// /0710 10016 21011 30094 40106 58006=
0089010010999992016010611004+70933-008667FM-12+000999999V0200601N009019999999N999999999+00091-00051101041ADDMA1999999100921MD1710101+9999REMSYN04801001 46/// /0609 10009 21005 30092 40104 57010=
0264010010999992016010612004+70933-008667FM-12+000999999V0200701N008019999999N015000199+00181-00081101031ADDAA106000231AY181021AY221021GA1051+004501081GA2999+999999041GE19MSL   +99999+99999GF106991051999004501999999MA1999999100911MD1710081+9999MW1021OD139901601999SA1+0191REMSYN08801001 11465 60708 10018 21008 30091 40103 57008 69921 70282 85810 222// 00019 333 91116=
0089010010999992016010613004+70933-008667FM-12+000999999V0200901N009019999999N999999999+00171-00061101071ADDMA1999999100951MD1510001+9999REMSYN04801001 46/// /0909 10017 21006 30095 40107 55000=
0089010010999992016010614004+70933-008667FM-12+000999999V0201001N008019999999N999999999+00161-00081101091ADDMA1999999100971MD1310051+9999REMSYN04801001 46/// /1008 10016 21008 30097 40109 53005=
0203010010999992016010615004+70933-008667FM-12+000999999V0200901N008019999999N020000199+00151-00081101111ADDAY121021AY211021GA1031+004501091GA2999+999999001GE19MSL   +99999+99999GF104991031999004501999999MA1999999100991MD1210081+9999MW1011REMSYN06001001 41470 40908 10015 21008 30099 40111 52008 70121 83301=
0089010010999992016010616004+70933-008667FM-12+000999999V0200801N008019999999N999999999+00191-00041101141ADDMA1999999101021MD1210071+9999REMSYN04801001 46/// /0808 10019 21004 30102 40114 52007=
0089010010999992016010617004+70933-008667FM-12+000999999V0200901N006019999999N999999999+00201-00031101211ADDMA1999999101091MD1310121+9999REMSYN04801001 46/// /0906 10020 21003 30109 40121 53012=
0263010010999992016010618004+70933-008667FM-12+000999999V0200901N008019999999N025000199+00201-00021101271ADDAA112000231AY121021AY211021GA1051+008001091GA2999+999999001GE19MSL   +99999+99999GF106991051999008001999999KA1120M+00221MA1999999101151MD1310161+9999MW1031OD139901301999REMSYN08201001 11575 60908 10020 21002 30115 40127 53016 69922 70321 85302 333 10022 91113=
0089010010999992016010619004+70933-008667FM-12+000999999V0200901N008019999999N999999999+00221-00041101311ADDMA1999999101191MD1110171+9999REMSYN04801001 46/// /0908 10022 21004 30119 40131 51017=
0089010010999992016010620004+70933-008667FM-12+000999999V0200901N007019999999N999999999+00221+00001101331ADDMA1999999101211MD1210121+9999REMSYN04801001 46/// /0907 10022 21000 30121 40133 52012=
0089010010999992016010621004+70933-008667FM-12+000999999V0200801N007019999999N999999999+00231+00001101361ADDMA1999999101241MD1210101+9999REMSYN04801001 46/// /0807 10023 20000 30124 40136 52010=
0089010010999992016010622004+70933-008667FM-12+000999999V0200801N006019999999N999999999+00221+00021101451ADDMA1999999101331MD1310141+9999REMSYN04801001 46/// /0806 10022 20002 30133 40145 53014=
0093010010999992016010623004+70939-008669FM-12+001099999V0200831N0061199999999999999999+00221+00001101471ADDKA1010M+00231KA2010N+00211MA1999999101351MD1210141+9999OC100751OD130100791999REMSYN004BUFR
0244010010999992016010700004+70933-008667FM-12+000999999V0200801N006019999999N025000199+00241+00011101531ADDAA106000091AY121021AY211021GA1041+008001081GA2999+999999001GE19MSL   +99999+99999GF105991041999008001999999MA1999999101411MD1210171+9999MW1021OD139901001999REMSYN07601001 11575 50806 10024 20001 30141 40153 52017 60001 70221 84201 333 91110=
0089010010999992016010701004+70933-008667FM-12+000999999V0200801N006019999999N999999999+00231-00021101561ADDMA1999999101441MD1210111+9999REMSYN04801001 46/// /0806 10023 21002 30144 40156 52011=
0089010010999992016010702004+70933-008667FM-12+000999999V0200801N007019999999N999999999+00221+00001101601ADDMA1999999101481MD1210131+9999REMSYN04801001 46/// /0807 10022 21000 30148 40160 52013=
0089010010999992016010703004+70933-008667FM-12+000999999V0200801N007019999999N999999999+00211-00021101641ADDMA1999999101521MD1210111+9999REMSYN04801001 46/// /0807 10021 21002 30152 40164 52011=
0089010010999992016010704004+70933-008667FM-12+000999999V0200701N004019999999N999999999+00201-00051101661ADDMA1999999101541MD1210111+9999REMSYN04801001 46/// /0704 10020 21005 30154 40166 52011=
0089010010999992016010705004+70933-008667FM-12+000999999V0200901N007019999999N999999999+00171-00031101691ADDMA1999999101571MD1210091+9999REMSYN04801001 46/// /0907 10017 21003 30157 40169 52009=
0309010010999992016010706004+70933-008667FM-12+000999999V0200901N007019999999N025000199+00171-00041101751ADDAA112000091AA224000231AJ199991999999999AY111021AY201021GA1011+008001081GA2999+999999001GE19MSL   +99999+99999GF103991011999008001999999IA1269KA1240N+00161MA1999999101631MD1310111+9999MW1021OD139900901999REMSYN09401001 11575 30907 10017 21004 30163 40175 53011 60002 70210 81202 333 20016 42999 70002 91109=
0089010010999992016010707004+70933-008667FM-12+000999999V0200801N006019999999N999999999+00161-00031101791ADDMA1999999101671MD1210121+9999REMSYN04801001 46/// /0806 10016 21003 30167 40179 52012=
0089010010999992016010708004+70933-008667FM-12+000999999V0200701N008019999999N999999999+00131-00031101861ADDMA1999999101741MD1310171+9999REMSYN04801001 46/// /0708 10013 21003 30174 40186 53017=
0203010010999992016010709004+70933-008667FM-12+000999999V0200701N009019999999N020000199+00121-00051101911ADDAY121021AY211021GA1031+004501081GA2999+999999001GE19MSL   +99999+99999GF107991031999004501999999MA1999999101791MD1310161+9999MW1031REMSYN06001001 41470 70709 10012 21005 30179 40191 53016 70321 83802=
0089010010999992016010710004+70933-008667FM-12+000999999V0200801N010019999999N999999999+00071-00141101951ADDMA1999999101831MD1210171+9999REMSYN04801001 46/// /0810 10007 21014 30183 40195 52017=
0089010010999992016010711004+70933-008667FM-12+000999999V0200901N009019999999N999999999+00071-00311101941ADDMA1999999101821MD1990081+9999REMSYN04801001 46/// /0909 10007 21031 30182 40194 50008=
0264010010999992016010712004+70933-008667FM-12+000999999V0201001N008019999999N030000199+00051-00351101941ADDAA106000091AY121021AY211021GA1041+008001081GA2999+999999021GE19MSL   +99999+99999GF107991041999008001999999MA1999999101821MD1990031+9999MW1021OD139901401999SA1+0161REMSYN08801001 11580 71008 10005 21035 30182 40194 50003 60001 70221 84808 222// 00016 333 91114=
0089010010999992016010713004+70933-008667FM-12+000999999V0200901N007019999999N999999999+00011-00391101971ADDMA1999999101851MD1310021+9999REMSYN04801001 46/// /0907 10001 21039 30185 40197 53002=
0089010010999992016010714004+70933-008667FM-12+000999999V0200501N005019999999N999999999-00041-00381102021ADDMA1999999101901MD1310081+9999REMSYN04801001 46/// /0505 11004 21038 30190 40202 53008=
0203010010999992016010715004+70933-008667FM-12+000999999V0200101N011019999999N030000199-00121-00491102041ADDAY121021AY221021GA1061+008001081GA2999+999999001GE19MSL   +99999+99999GF107991061999008001999999MA1999999101921MD1110101+9999MW1021REMSYN06001001 41580 70111 11012 21049 30192 40204 51010 70222 86801=
0089010010999992016010716004+70933-008667FM-12+000999999V0200101N010019999999N999999999-00201-00451101971ADDMA1999999101851MD1990011+9999REMSYN04801001 46/// /0110 11020 21045 30185 40197 50001=
0089010010999992016010717004+70933-008667FM-12+000999999V0200201N010019999999N999999999-00211-00551101991ADDMA1999999101871MD1810041+9999REMSYN04801001 46/// /0210 11021 21055 30187 40199 58004=
0247010010999992016010718004+70933-008667FM-12+000999999V0203601N012019999999N010000199-00261-00651101981ADDAA112000091AY121021AY201021GA1021+008001081GE19MSL   +99999+99999GF102991021999008001999999KA1120M+00171MA1999999101861MD1510051+9999MW1011OD139901901999REMSYN08201001 11560 23612 11026 21065 30186 40198 55005 60002 70120 82800 333 10017 91119=
0089010010999992016010719004+70933-008667FM-12+000999999V0203601N010019999999N999999999-00261-00571101981ADDMA1999999101861MD1990021+9999REMSYN04801001 46/// /3610 11026 21057 30186 40198 50002=
0089010010999992016010720004+70933-008667FM-12+000999999V0203601N012019999999N999999999-00241-00471101951ADDMA1999999101831MD1810031+9999REMSYN04801001 46/// /3612 11024 21047 30183 40195 58003=
0089010010999992016010721004+70933-008667FM-12+000999999V0203601N008019999999N999999999-00241-00411101961ADDMA1999999101841MD1710031+9999REMSYN04801001 46/// /3608 11024 21041 30184 40196 57003=
0089010010999992016010722004+70933-008667FM-12+000999999V0203601N009019999999N999999999-00221-00451101951ADDMA1999999101831MD1710031+9999REMSYN04801001 46/// /3609 11022 21045 30183 40195 57003=
0089010010999992016010723004+70933-008667FM-12+000999999V0203601N007019999999N999999999-00251-00471101931ADDMA1999999101811MD1810021+9999REMSYN04801001 46/// /3607 11025 21047 30181 40193 58002=
0203010010999992016010800004+70939-008669FM-12+001099999V0200101N0075199999999010000199-00251-00531101901ADDAA106999999AY121061AY201061GA1021+003001081GE19MSL   +99999+99999GF102991021999003001999999KA1010M-00231KA2010N-00251MA1999999101781MD1810051+9999MW1011OC101001OD130601661999UA19999999049REMSYN004BUFR
0089010010999992016010801004+70933-008667FM-12+000999999V0203601N006019999999N999999999-00281-00561101871ADDMA1999999101751MD1710071+9999REMSYN04801001 46/// /3606 11028 21056 30175 40187 57007=
0089010010999992016010802004+70933-008667FM-12+000999999V0203601N003019999999N999999999-00311-00621101851ADDMA1999999101731MD1710081+9999REMSYN04801001 46/// /3603 11031 21062 30173 40185 57008=
0089010010999992016010803004+70933-008667FM-12+000999999V0201801N003019999999N999999999-00261-00511101841ADDMA1999999101721MD1610061+9999REMSYN04801001 46/// /1803 11026 21051 30172 40184 56006=
0089010010999992016010804004+70933-008667FM-12+000999999V0203401N005019999999N999999999-00271-00481101781ADDMA1999999101661MD1810091+9999REMSYN04801001 46/// /3405 11027 21048 30166 40178 58009=
0089010010999992016010805004+70933-008667FM-12+000999999V0203601N004019999999N999999999-00301-00581101751ADDMA1999999101631MD1810101+9999REMSYN04801001 46/// /3604 11030 21058 30163 40175 58010=
0190010010999992016010806004+70939-008669FM-12+001099999V0202951N0027199999999020000199-00371-00681101741ADDAY101061AY201061GA1011+006001081GE19MSL   +99999+99999GF101991011999006001999999IA1199KA1120M-00211KA2120N-00381MA1999999101621MD1510101+9999MW1021OD130601121999UA19999999049REMSYN004BUFR
0089010010999992016010807004+70933-008667FM-12+000999999V0202801N004019999999N999999999-00261-00491101711ADDMA1999999101591MD1810071+9999REMSYN04801001 46/// /2804 11026 21049 30159 40171 58007=
0089010010999992016010808004+70933-008667FM-12+000999999V0203101N001019999999N999999999-00311-00641101721ADDMA1999999101601MD1710031+9999REMSYN04801001 46/// /3101 11031 21064 30160 40172 57003=
0187010010999992016010809004+70933-008667FM-12+000999999V0202701N002019999999N009000199-00271-00501101711ADDAY181021AY211021GA1071+004501091GE19MSL   +99999+99999GF107991071999004501999999MA1999999101591MD1810031+9999MW1851REMSYN06001001 41459 72702 11027 21050 30159 40171 58003 78581 873//=
0089010010999992016010810004+70933-008667FM-12+000999999V0203101N005019999999N999999999-00301-00581101701ADDMA1999999101581MD1810011+9999REMSYN04801001 46/// /3105 11030 21058 30158 40170 58001=
0089010010999992016010811004+70933-008667FM-12+000999999V0202701N002019999999N999999999-00231-00601101681ADDMA1999999101561MD1710041+9999REMSYN04801001 46/// /2702 11023 21060 30156 40168 57004=
0130010010999992016010812004+70933-008667FM-12+000999999V0201101N007019999999N999999999-00191-00491101691ADDAA199999919MA1999999101571MD1710021+9999OD139901001999REMSYN06401001 16/// /1107 11019 21049 30157 40169 57002 6//// 333 91110=
0089010010999992016010813004+70933-008667FM-12+000999999V0201201N006019999999N999999999-00181-00521101691ADDMA1999999101571MD1410001+9999REMSYN04801001 46/// /1206 11018 21052 30157 40169 54000=
0089010010999992016010814004+70933-008667FM-12+000999999V0203401N003019999999N999999999-00251-00591101681ADDMA1999999101561MD1410001+9999REMSYN04801001 46/// /3403 11025 21059 30156 40168 54000=
0089010010999992016010815004+70933-008667FM-12+000999999V0203401N004019999999N999999999-00261-00621101661ADDMA1999999101541MD1710031+9999REMSYN04801001 46/// /3404 11026 21062 30154 40166 57003=
0089010010999992016010816004+70933-008667FM-12+000999999V0200401N001019999999N999999999-00321-00641101651ADDMA1999999101531MD1710041+9999REMSYN04801001 46/// /0401 11032 21064 30153 40165 57004=
0089010010999992016010817004+70933-008667FM-12+000999999V0200401N003019999999N999999999-00291-00591101641ADDMA1999999101521MD1710041+9999REMSYN04801001 46/// /0403 11029 21059 30152 40164 57004=
0149010010999992016010818004+70933-008667FM-12+000999999V0201901N002019999999N999999999-00291-00601101651ADDAA199999919KA1120M-00171MA1999999101531MD1710021+9999OD139901001999REMSYN07001001 16/// /1902 11029 21060 30153 40165 57002 6//// 333 11017 91110=
0089010010999992016010819004+70933-008667FM-12+000999999V0200101N003019999999N999999999-00301-00611101671ADDMA1999999101551MD1210021+9999REMSYN04801001 46/// /0103 11030 21061 30155 40167 52002=
0089010010999992016010820004+70933-008667FM-12+000999999V0203601N003019999999N999999999-00321-00671101681ADDMA1999999101561MD1210041+9999REMSYN04801001 46/// /3603 11032 21067 30156 40168 52004=
0089010010999992016010821004+70933-008667FM-12+000999999V0200101N002019999999N999999999-00401-00711101701ADDMA1999999101581MD1210061+9999REMSYN04801001 46/// /0102 11040 21071 30158 40170 52006=
0089010010999992016010822004+70933-008667FM-12+000999999V0201201N003019999999N999999999-00291-00711101711ADDMA1999999101591MD1210041+9999REMSYN04801001 46/// /1203 11029 21071 30159 40171 52004=
0089010010999992016010823004+70933-008667FM-12+000999999V0203501N003019999999N999999999-00331-00711101701ADDMA1999999101581MD1990021+9999REMSYN04801001 46/// /3503 11033 21071 30158 40170 50002=
0130010010999992016010900004+70933-008667FM-12+000999999V0203601N002019999999N999999999-00341-00731101721ADDAA199999919MA1999999101601MD1210021+9999OD139900701999REMSYN06401001 16/// /3602 11034 21073 30160 40172 52002 6//// 333 91107=
0089010010999992016010901004+70933-008667FM-12+000999999V0203501N003019999999N999999999-00341-00731101691ADDMA1999999101571MD1810021+9999REMSYN04801001 46/// /3503 11034 21073 30157 40169 58002=
0089010010999992016010902004+70933-008667FM-12+000999999V0203601N002019999999N999999999-00411-00801101721ADDMA1999999101601MD1310021+9999REMSYN04801001 46/// /3602 11041 21080 30160 40172 53002=
0089010010999992016010903004+70933-008667FM-12+000999999V0203601N004019999999N999999999-00371-00751101721ADDMA1999999101601MD1510001+9999REMSYN04801001 46/// /3604 11037 21075 30160 40172 55000=
0089010010999992016010904004+70933-008667FM-12+000999999V0203401N003019999999N999999999-00371-00661101711ADDMA1999999101591MD1990021+9999REMSYN04801001 46/// /3403 11037 21066 30159 40171 50002=
0089010010999992016010905004+70933-008667FM-12+000999999V0203401N004019999999N999999999-00411-00651101691ADDMA1999999101571MD1710031+9999REMSYN04801001 46/// /3404 11041 21065 30157 40169 57003=
0149010010999992016010906004+70933-008667FM-12+000999999V0203501N002019999999N999999999-00441-00741101701ADDAA199999919KA1240N-00451MA1999999101581MD1710021+9999OD139900601999REMSYN07001001 16/// /3502 11044 21074 30158 40170 57002 6//// 333 21045 91106=
0089010010999992016010907004+70933-008667FM-12+000999999V0203501N001019999999N999999999-00481-00751101711ADDMA1999999101591MD1510011+9999REMSYN04801001 46/// /3501 11048 21075 30159 40171 55001=
0089010010999992016010908004+70933-008667FM-12+000999999V0202901N002019999999N999999999-00461-00761101741ADDMA1999999101621MD1310051+9999REMSYN04801001 46/// /2902 11046 21076 30162 40174 53005=
0089010010999992016010909004+70933-008667FM-12+000999999V0200901N004019999999N999999999-00371-00591101781ADDMA1999999101661MD1210081+9999REMSYN04801001 46/// /0904 11037 21059 30166 40178 52008=
0089010010999992016010910004+70933-008667FM-12+000999999V0200101N003019999999N999999999-00421-00661101801ADDMA1999999101681MD1310091+9999REMSYN04801001 46/// /0103 11042 21066 30168 40180 53009=
0089010010999992016010911004+70933-008667FM-12+000999999V0200501N002019999999N999999999-00421-00621101811ADDMA1999999101691MD1210071+9999REMSYN04801001 46/// /0502 11042 21062 30169 40181 52007=
0130010010999992016010912004+70933-008667FM-12+000999999V0200501N004019999999N999999999-00361-00531101821ADDAA199999919MA1999999101701MD1210051+9999OD139900701999REMSYN06401001 16/// /0504 11036 21053 30170 40182 52005 6//// 333 91107=
0089010010999992016010913004+70933-008667FM-12+000999999V0200801N006019999999N999999999-00321-00531101821ADDMA1999999101701MD1210021+9999REMSYN04801001 46/// /0806 11032 21053 30170 40182 52002=
0108010010999992016010914004+70933-008667FM-12+000999999V0200801N006019999999N999999999-00331-00641101821ADDMA1999999101701MD1290019+9999REMSYN04801001 46/// /0806 11033 21064 30170 40182 54001=EQDQ01.1    3APC3  
0089010010999992016010915004+70933-008667FM-12+000999999V0200201N004019999999N999999999-00391-00691101821ADDMA1999999101701MD1410001+9999REMSYN04801001 46/// /0204 11039 21069 30170 40182 54000=
0089010010999992016010916004+70933-008667FM-12+000999999V0200101N009019999999N999999999-00401-00781101801ADDMA1999999101681MD1710021+9999REMSYN04801001 46/// /0109 11040 21078 30168 40180 57002=
0089010010999992016010917004+70933-008667FM-12+000999999V0200101N009019999999N999999999-00411-00811101821ADDMA1999999101701MD1410001+9999REMSYN04801001 46/// /0109 11041 21081 30170 40182 54000=
0149010010999992016010918004+70933-008667FM-12+000999999V0200201N006019999999N999999999-00431-00831101841ADDAA199999919KA1120M-00291MA1999999101721MD1310021+9999OD139901301999REMSYN07001001 16/// /0206 11043 21083 30172 40184 53002 6//// 333 11029 91113=
0089010010999992016010919004+70933-008667FM-12+000999999V0200201N008019999999N999999999-00461-00861101861ADDMA1999999101741MD1310061+9999REMSYN04801001 46/// /0208 11046 21086 30174 40186 53006=
0089010010999992016010920004+70933-008667FM-12+000999999V0200201N006019999999N999999999-00481-00881101891ADDMA1999999101771MD1310081+9999REMSYN04801001 46/// /0206 11048 21088 30177 40189 53008=
0089010010999992016010921004+70933-008667FM-12+000999999V0200201N007019999999N999999999-00501-00931101891ADDMA1999999101771MD1210051+9999REMSYN04801001 46/// /0207 11050 21093 30177 40189 52005=
0089010010999992016010922004+70933-008667FM-12+000999999V0200201N007019999999N999999999-00511-00951101891ADDMA1999999101771MD1990021+9999REMSYN04801001 46/// /0207 11051 21095 30177 40189 50002=
0089010010999992016010923004+70933-008667FM-12+000999999V0203501N006019999999N999999999-00521-00961101861ADDMA1999999101741MD1710031+9999REMSYN04801001 46/// /3506 11052 21096 30174 40186 57003=
0130010010999992016011000004+70933-008667FM-12+000999999V0203601N006019999999N999999999-00521-00951101861ADDAA199999919MA1999999101741MD1710031+9999OD139901101999REMSYN06401001 16/// /3606 11052 21095 30174 40186 57003 6//// 333 91111=
0089010010999992016011001004+70933-008667FM-12+000999999V0200101N007019999999N999999999-00541-00931101851ADDMA1999999101731MD1710041+9999REMSYN04801001 46/// /0107 11054 21093 30173 40185 57004=
0089010010999992016011002004+70933-008667FM-12+000999999V0203601N005019999999N999999999-00571-00991101821ADDMA1999999101701MD1710041+9999REMSYN04801001 46/// /3605 11057 21099 30170 40182 57004=
0089010010999992016011003004+70933-008667FM-12+000999999V0203501N005019999999N999999999-00571-00961101771ADDMA1999999101651MD1810091+9999REMSYN04801001 46/// /3505 11057 21096 30165 40177 58009=
0089010010999992016011004004+70933-008667FM-12+000999999V0203401N006019999999N999999999-00581-00961101751ADDMA1999999101631MD1710101+9999REMSYN04801001 46/// /3406 11058 21096 30163 40175 57010=
0089010010999992016011005004+70933-008667FM-12+000999999V0203501N007019999999N999999999-00561-00911101721ADDMA1999999101601MD1710101+9999REMSYN04801001 46/// /3507 11056 21091 30160 40172 57010=
0149010010999992016011006004+70933-008667FM-12+000999999V0203501N007019999999N999999999-00571-00931101711ADDAA199999919KA1240N-00601MA1999999101591MD1710071+9999OD139901101999REMSYN07001001 16/// /3507 11057 21093 30159 40171 57007 6//// 333 21060 91111=
0089010010999992016011007004+70933-008667FM-12+000999999V0203501N006019999999N999999999-00561-00931101701ADDMA1999999101581MD1710051+9999REMSYN04801001 46/// /3506 11056 21093 30158 40170 57005=
0089010010999992016011008004+70933-008667FM-12+000999999V0203601N004019999999N999999999-00541-00911101701ADDMA1999999101581MD1710021+9999REMSYN04801001 46/// /3604 11054 21091 30158 40170 57002=
0089010010999992016011009004+70933-008667FM-12+000999999V0203501N005019999999N999999999-00511-00891101691ADDMA1999999101571MD1710021+9999REMSYN04801001 46/// /3505 11051 21089 30157 40169 57002=
0089010010999992016011010004+70933-008667FM-12+000999999V0203501N006019999999N999999999-00521-00881101681ADDMA1999999101561MD1710021+9999REMSYN04801001 46/// /3506 11052 21088 30156 40168 57002=
0089010010999992016011011004+70933-008667FM-12+000999999V0203601N005019999999N999999999-00511-00861101681ADDMA1999999101561MD1710021+9999REMSYN04801001 46/// /3605 11051 21086 30156 40168 57002=
0130010010999992016011012004+70933-008667FM-12+000999999V0200201N005019999999N999999999-00511-00841101661ADDAA199999919MA1999999101541MD1710031+9999OD139900901999REMSYN06401001 16/// /0205 11051 21084 30154 40166 57003 6//// 333 91109=
0089010010999992016011013004+70933-008667FM-12+000999999V0203601N005019999999N999999999-00511-00881101641ADDMA1999999101521MD1710041+9999REMSYN04801001 46/// /3605 11051 21088 30152 40164 57004=
0089010010999992016011014004+70933-008667FM-12+000999999V0203601N005019999999N999999999-00511-00911101631ADDMA1999999101511MD1710051+9999REMSYN04801001 46/// /3605 11051 21091 30151 40163 57005=
0089010010999992016011015004+70933-008667FM-12+000999999V0200101N006019999999N999999999-00531-00931101631ADDMA1999999101511MD1710031+9999REMSYN04801001 46/// /0106 11053 21093 30151 40163 57003=
0089010010999992016011016004+70933-008667FM-12+000999999V0203601N007019999999N999999999-00541-00891101591ADDMA1999999101471MD1810051+9999REMSYN04801001 46/// /3607 11054 21089 30147 40159 58005=
0089010010999992016011017004+70933-008667FM-12+000999999V0200101N007019999999N999999999-00551-00881101571ADDMA1999999101451MD1810061+9999REMSYN04801001 46/// /0107 11055 21088 30145 40157 58006=
0149010010999992016011018004+70933-008667FM-12+000999999V0200101N007019999999N999999999-00541-00901101551ADDAA199999919KA1120M-00501MA1999999101431MD1710081+9999OD139901001999REMSYN07001001 16/// /0107 11054 21090 30143 40155 57008 6//// 333 11050 91110=
0089010010999992016011019004+70933-008667FM-12+000999999V0200101N006019999999N999999999-00551-00911101551ADDMA1999999101431MD1710051+9999REMSYN04801001 46/// /0106 11055 21091 30143 40155 57005=
0089010010999992016011020004+70933-008667FM-12+000999999V0203601N006019999999N999999999-00571-00871101541ADDMA1999999101421MD1710031+9999REMSYN04801001 46/// /3606 11057 21087 30142 40154 57003=
0089010010999992016011021004+70933-008667FM-12+000999999V0203601N006019999999N999999999-00541-00911101541ADDMA1999999101421MD1410001+9999REMSYN04801001 46/// /3606 11054 21091 30142 40154 54000=
0089010010999992016011022004+70933-008667FM-12+000999999V0203601N007019999999N999999999-00551-00931101511ADDMA1999999101391MD1810031+9999REMSYN04801001 46/// /3607 11055 21093 30139 40151 58003=
0089010010999992016011023004+70933-008667FM-12+000999999V0203501N009019999999N999999999-00561-00931101481ADDMA1999999101361MD1810051+9999REMSYN04801001 46/// /3509 11056 21093 30136 40148 58005=
0235010010999992016011100004+70939-008669FM-12+001099999V0203601N0082101000199020000199-00571-00931101471ADDAA106999999AY121061AY221061GA1081+010001081GA2999+999999101GA3999+999999101GE19MSL   +99999+99999GF108991081999010001999999KA1010M-00551KA2010N-00571MA1999999101351MD1710071+9999MW1021OC101411OD130601481999UA19999999039REMSYN004BUFR
0089010010999992016011101004+70933-008667FM-12+000999999V0203601N010019999999N999999999-00581-01011101481ADDMA1999999101361MD1510031+9999REMSYN04801001 46/// /3610 11058 21101 30136 40148 55003=
0089010010999992016011102004+70933-008667FM-12+000999999V0203401N009019999999N999999999-00591-00951101451ADDMA1999999101331MD1710031+9999REMSYN04801001 46/// /3409 11059 21095 30133 40145 57003=
0089010010999992016011103004+70933-008667FM-12+000999999V0203601N008019999999N999999999-00611-00961101441ADDMA1999999101321MD1710031+9999REMSYN04801001 46/// /3608 11061 21096 30132 40144 57003=
0089010010999992016011104004+70933-008667FM-12+000999999V0203401N010019999999N999999999-00591-00921101401ADDMA1999999101281MD1710081+9999REMSYN04801001 46/// /3410 11059 21092 30128 40140 57008=
0089010010999992016011105004+70933-008667FM-12+000999999V0203401N011019999999N999999999-00621-00911101401ADDMA1999999101281MD1710051+9999REMSYN04801001 46/// /3411 11062 21091 30128 40140 57005=
0214010010999992016011106004+70939-008669FM-12+001099999V0203421N0092199999999025000199-00601-00861101391ADDAY121061AY211061GA1031+006001081GA2999+999999001GE19MSL   +99999+99999GF105991031999006001999999IA1229KA1120M-00541KA2120N-00641MA1999999101271MD1710051+9999MW1011OC101431OD130601541999UA19999999049REMSYN004BUFR
0089010010999992016011107004+70933-008667FM-12+000999999V0203401N010019999999N999999999-00621-00881101401ADDMA1999999101281MD1410001+9999REMSYN04801001 46/// /3410 11062 21088 30128 40140 54000=
0089010010999992016011108004+70933-008667FM-12+000999999V0203401N013019999999N999999999-00651-00871101371ADDMA1999999101251MD1810021+9999REMSYN04801001 46/// /3413 11065 21087 30125 40137 58002=
0187010010999992016011109004+70933-008667FM-12+000999999V0203401N014019999999N025000199-00621-00841101381ADDAY111021AY211021GA1041+008001081GE19MSL   +99999+99999GF104991041999008001999999MA1999999101261MD1410001+9999MW1021REMSYN06001001 41575 43414 11062 21084 30126 40138 54000 70211 84800=
0089010010999992016011110004+70933-008667FM-12+000999999V0203401N015019999999N999999999-00581-00821101381ADDMA1999999101261MD1710011+9999REMSYN04801001 46/// /3415 11058 21082 30126 40138 57001=
0089010010999992016011111004+70933-008667FM-12+000999999V0203401N015019999999N999999999-00541-00811101371ADDMA1999999101251MD1990001+9999REMSYN04801001 46/// /3415 11054 21081 30125 40137 50000=
0264010010999992016011112004+70933-008667FM-12+000999999V0203401N015019999999N025000199-00491-00751101351ADDAA106000091AY121021AY211021GA1051+004501061GA2999+999999031GE19MSL   +99999+99999GF107991051999004501999999MA1999999101231MD1710031+9999MW1031OD139902001999SA1+0071REMSYN08801001 11475 73415 11049 21075 30123 40135 57003 60001 70321 85550 222// 00007 333 91120=
0089010010999992016011113004+70933-008667FM-12+000999999V0203401N014019999999N999999999-00461-00631101371ADDMA1999999101251MD1510021+9999REMSYN04801001 46/// /3414 11046 21063 30125 40137 55002=
0089010010999992016011114004+70933-008667FM-12+000999999V0203301N012019999999N999999999-00361-00551101381ADDMA1999999101261MD1310011+9999REMSYN04801001 46/// /3312 11036 21055 30126 40138 53001=
0187010010999992016011115004+70933-008667FM-12+000999999V0203401N012019999999N002000199-00251-00391101391ADDAY171021AY221021GA1071+004501061GE19MSL   +99999+99999GF108991071999004501999999MA1999999101271MD1210041+9999MW1361REMSYN06001001 41420 83412 11025 21039 30127 40139 52004 73672 875//=
0089010010999992016011116004+70933-008667FM-12+000999999V0203401N012019999999N999999999-00211-00341101381ADDMA1999999101261MD1210021+9999REMSYN04801001 46/// /3412 11021 21034 30126 40138 52002=
0089010010999992016011117004+70933-008667FM-12+000999999V0203501N010019999999N999999999-00151-00271101401ADDMA1999999101281MD1210021+9999REMSYN04801001 46/// /3510 11015 21027 30128 40140 52002=
0149010010999992016011118004+70933-008667FM-12+000999999V0203401N011019999999N999999999-00121-00251101401ADDAA199999919KA1120M-00121MA1999999101281MD1310011+9999OD139902001999REMSYN07001001 16/// /3411 11012 21025 30128 40140 53001 6//// 333 11012 91120=
0089010010999992016011119004+70933-008667FM-12+000999999V0203501N010019999999N999999999-00101-00221101421ADDMA1999999101301MD1310031+9999REMSYN04801001 46/// /3510 11010 21022 30130 40142 53003=
0089010010999992016011120004+70933-008667FM-12+000999999V0203601N010019999999N999999999-00081-00181101441ADDMA1999999101321MD1310041+9999REMSYN04801001 46/// /3610 11008 21018 30132 40144 53004=
0089010010999992016011121004+70933-008667FM-12+000999999V0203601N010019999999N999999999-00071-00161101461ADDMA1999999101341MD1310061+9999REMSYN04801001 46/// /3610 11007 21016 30134 40146 53006=
0089010010999992016011122004+70933-008667FM-12+000999999V0200101N014019999999N999999999-00011-00151101451ADDMA1999999101331MD1210041+9999REMSYN04801001 46/// /0114 11001 21015 30133 40145 52004=
0089010010999992016011123004+70933-008667FM-12+000999999V0200101N011019999999N999999999-00031-00171101481ADDMA1999999101361MD1310051+9999REMSYN04801001 46/// /0111 11003 21017 30136 40148 53005=
0224010010999992016011200004+70939-008669FM-12+001099999V0203581N0097100100199002500199-00071-00171101551ADDAY171061AY221061GA1071+001001071GA2999+999999101GA3999+999999101GE19MSL   +99999+99999GF107991071999001001999999KA1010M-00031KA2010N-00081MA1999999101431MD1310091+9999MW1101OC101671OD130601831999UA19999999049REMSYN004BUFR
0089010010999992016011201004+70933-008667FM-12+000999999V0203601N010019999999N999999999-00071-00161101571ADDMA1999999101451MD1210121+9999REMSYN04801001 46/// /3610 11007 21016 30145 40157 52012=
0089010010999992016011202004+70933-008667FM-12+000999999V0200101N009019999999N999999999-00051-00151101651ADDMA1999999101531MD1310161+9999REMSYN04801001 46/// /0109 11005 21015 30153 40165 53016=
0089010010999992016011203004+70933-008667FM-12+000999999V0203601N010019999999N999999999-00051-00141101641ADDMA1999999101521MD1990091+9999REMSYN04801001 46/// /3610 11005 21014 30152 40164 50009=
0089010010999992016011204004+70933-008667FM-12+000999999V0203601N010019999999N999999999-00071-00161101651ADDMA1999999101531MD1110081+9999REMSYN04801001 46/// /3610 11007 21016 30153 40165 51008=
0089010010999992016011205004+70933-008667FM-12+000999999V0203601N012019999999N999999999-00051-00201101641ADDMA1999999101521MD1990011+9999REMSYN04801001 46/// /3612 11005 21020 30152 40164 50001=
0241010010999992016011206004+70939-008669FM-12+001099999V0203581N0103199999999000400199-00051-00151101651ADDAA112000631AY181061AY221061GA1091+999999101GA2999+999999101GA3999+999999101GE19MSL   +99999+99999GF199999091999999999999999IA1199KA1120M+00001KA2120N-00131MA1999999101531MD1210011+9999MW1861OC101391OD130601671999UA19999999049REMSYN004BUFR
0089010010999992016011207004+70933-008667FM-12+000999999V0200101N009019999999N999999999+00041-00071101651ADDMA1999999101531MD1510001+9999REMSYN04801001 46/// /0109 10004 21007 30153 40165 55000=
0089010010999992016011208004+70933-008667FM-12+000999999V0200601N007019999999N999999999+00051-00101101721ADDMA1999999101601MD1310081+9999REMSYN04801001 46/// /0607 10005 21010 30160 40172 53008=
0187010010999992016011209004+70933-008667FM-12+000999999V0200401N005019999999N005000199+00051-00151101801ADDAY181021AY221021GA1061+004501091GE19MSL   +99999+99999GF106991061999004501999999MA1999999101681MD1310151+9999MW1101REMSYN06001001 41450 60405 10005 21015 30168 40180 53015 71082 86300=
0093010010999992016011210004+70939-008669FM-12+001099999V0200501N0096199999999999999999+00041-00211101851ADDKA1010M+00091KA2010N+00031MA1999999101731MD1210201+9999OC101191OD130101191999REMSYN004BUFR
0089010010999992016011211004+70933-008667FM-12+000999999V0200601N007019999999N999999999+00071-00191101901ADDMA1999999101781MD1210181+9999REMSYN04801001 46/// /0607 10007 21019 30178 40190 52018=
0248010010999992016011212004+70933-008667FM-12+000999999V0200301N004019999999N015000199-00021-00231101951ADDAA106000431AY181021AY211021GA1041+004501081GE19MSL   +99999+99999GF104991041999004501999999MA1999999101831MD1210151+9999MW1021OD139901401999SA1+0061REMSYN08801001 11465 40304 11002 21023 30183 40195 52015 69941 70281 84800 222// 00006 333 91114=
0093010010999992016011213004+70939-008669FM-12+001099999V0200151N0037199999999999999999-00021-00141102001ADDKA1010M+00021KA2010N-00061MA1999999101881MD1210151+9999OC100501OD130101241999REMSYN004BUFR
0089010010999992016011214004+70933-008667FM-12+000999999V0200201N002019999999N999999999+00031-00291102031ADDMA1999999101911MD1210141+9999REMSYN04801001 46/// /0202 10003 21029 30191 40203 52014=
0192010010999992016011215004+70939-008669FM-12+001099999V0200281N0050199999999010000199-00041-00331102081ADDAY121031AY201031GA1041+003001081GE19MSL   +99999+99999GF104991041999003001999999KA1010M+00051KA2010N-00051MA1999999101961MD1210131+9999MW1021OC100781OD130101071999UA19999999049REMSYN004BUFR
0089010010999992016011216004+70933-008667FM-12+000999999V0200601N009019999999N999999999+00011-00311102141ADDMA1999999102021MD1310141+9999REMSYN04801001 46/// /0609 10001 21031 30202 40214 53014=
0089010010999992016011217004+70933-008667FM-12+000999999V0200501N006019999999N999999999-00071-00261102181ADDMA1999999102061MD1210141+9999REMSYN04801001 46/// /0506 11007 21026 30206 40218 52014=
0247010010999992016011218004+70933-008667FM-12+000999999V0200301N005019999999N020000199-00071-00421102201ADDAA112000431AY121021AY211021GA1031+008001081GE19MSL   +99999+99999GF103991031999008001999999KA1120M+00091MA1999999102081MD1110131+9999MW1021OD139901201999REMSYN08201001 11570 30305 11007 21042 30208 40220 51013 69942 70221 83200 333 10009 91112=
0089010010999992016011219004+70933-008667FM-12+000999999V0200301N003019999999N999999999-00041-00361102221ADDMA1999999102101MD1110081+9999REMSYN04801001 46/// /0303 11004 21036 30210 40222 51008=
0089010010999992016011220004+70933-008667FM-12+000999999V0200201N007019999999N999999999-00021-00311102211ADDMA1999999102091MD1990041+9999REMSYN04801001 46/// /0207 11002 21031 30209 40221 50004=
0089010010999992016011221004+70933-008667FM-12+000999999V0200101N009019999999N999999999-00031-00251102241ADDMA1999999102121MD1210041+9999REMSYN04801001 46/// /0109 11003 21025 30212 40224 52004=
0093010010999992016011222004+70939-008669FM-12+001099999V0200121N0086199999999999999999+00001-00201102251ADDKA1010M+00001KA2010N-00031MA1999999102131MD1210031+9999OC101161OD130101391999REMSYN004BUFR
0089010010999992016011223004+70933-008667FM-12+000999999V0200101N010019999999N999999999+00001-00201102241ADDMA1999999102121MD1990031+9999REMSYN04801001 46/// /0110 10000 21020 30212 40224 50003=
0228010010999992016011300004+70933-008667FM-12+000999999V0200101N007019999999N010000199-00011-00241102241ADDAA106000091AY111021AY201021GA1031+004501081GE19MSL   +99999+99999GF103991031999004501999999MA1999999102121MD1410001+9999MW1021OD139901401999REMSYN07601001 11460 30107 11001 21024 30212 40224 54000 60001 70210 83100 333 91114=
0089010010999992016011301004+70933-008667FM-12+000999999V0203601N006019999999N999999999-00011-00241102241ADDMA1999999102121MD1710021+9999REMSYN04801001 46/// /3606 11001 21024 30212 40224 57002=
0108010010999992016011302004+70933-008667FM-12+000999999V0200401N005019999999N999999999-00021-00421102231ADDMA1999999102111MD1790019+9999REMSYN04801001 46/// /0405 11002 21042 30211 40223 54001=EQDQ01.1    3APC3  
0085010010999992016011303004+70939-008669FM-12+001099999V0200181N0025199999999999999999-00021-00251102201ADDKA1010M+00001KA2010N-00071MA1999999102081MD1810031+9999OD130100781999REMSYN004BUFR
0089010010999992016011304004+70933-008667FM-12+000999999V0200201N005019999999N999999999-00031-00431102201ADDMA1999999102081MD1810031+9999REMSYN04801001 46/// /0205 11003 21043 30208 40220 58003=
0089010010999992016011305004+70933-008667FM-12+000999999V0203501N005019999999N999999999+00011-00371102151ADDMA1999999102031MD1810081+9999REMSYN04801001 46/// /3505 10001 21037 30203 40215 58008=
0220010010999992016011306004+70939-008669FM-12+001099999V0200561N0046199999999020000199+00001-00541102171ADDAA112999999AA224000431AY111061AY201061GA1021+006001081GE19MSL   +99999+99999GF102991021999006001999999IA1229KA1120M+00031KA2120N-00111MA1999999102051MD1510041+9999MW1021OC100931OD130601221999UA19999999049REMSYN004BUFR
0093010010999992016011307004+70939-008669FM-12+001099999V0202641N0027199999999999999999+00001-00641102141ADDKA1010M+00041KA2010N-00091MA1999999102021MD1610061+9999OC100691OD130100831999REMSYN004BUFR
0093010010999992016011308004+70939-008669FM-12+001099999V0200891N0093199999999999999999+00001-00631102121ADDKA1010M+00031KA2010N-00191MA1999999102001MD1810031+9999OC101421OD130101421999REMSYN004BUFR
0203010010999992016011309004+70933-008667FM-12+000999999V0203501N003019999999N020000199-00081-00531102171ADDAY111021AY201021GA1011+008001081GA2999+999999001GE19MSL   +99999+99999GF102991011999008001999999MA1999999102051MD1510011+9999MW1021REMSYN06001001 41570 23503 11008 21053 30205 40217 55001 70210 81101=
0089010010999992016011310004+70933-008667FM-12+000999999V0200201N005019999999N999999999-00091-00491102181ADDMA1999999102061MD1310041+9999REMSYN04801001 46/// /0205 11009 21049 30206 40218 53004=
0093010010999992016011311004+70939-008669FM-12+001099999V0200341N0043199999999999999999-00101-00601102181ADDKA1010M-00031KA2010N-00161MA1999999102061MD1310061+9999OC100741OD130101041999REMSYN004BUFR
0219010010999992016011312004+70939-008669FM-12+001099999V0200681N0034199999999025000199-00071-00461102181ADDAA106999999AY101061AY201061GA1021+006001081GA2999+999999001GE19MSL   +99999+99999GF102991021999006001999999KA1010M-00061KA2010N-00121MA1999999102061MD1510011+9999MW1021OC100571OD130601421999UA19999999049REMSYN004BUFR
0093010010999992016011313004+70939-008669FM-12+001099999V0200721N0047199999999999999999-00071-00491102161ADDKA1010M-00031KA2010N-00131MA1999999102041MD1510021+9999OC101061OD130101221999REMSYN004BUFR
0089010010999992016011314004+70933-008667FM-12+000999999V0200801N008019999999N999999999-00031-00461102151ADDMA1999999102031MD1510031+9999REMSYN04801001 46/// /0808 11003 21046 30203 40215 55003=
0208010010999992016011315004+70939-008669FM-12+001099999V0201121N0043199999999025000199-00041-00451102191ADDAY101031AY201031GA1021+006001081GA2999+999999001GE19MSL   +99999+99999GF102991021999006001999999KA1010M-00031KA2010N-00141MA1999999102071MD1510011+9999MW1021OC100681OD130101081999UA19999999049REMSYN004BUFR
0089010010999992016011316004+70933-008667FM-12+000999999V0200401N002019999999N999999999-00221-00731102211ADDMA1999999102091MD1310051+9999REMSYN04801001 46/// /0402 11022 21073 30209 40221 53005=
0089010010999992016011317004+70933-008667FM-12+000999999V0200301N003019999999N999999999-00101-00711102181ADDMA1999999102061MD1990031+9999REMSYN04801001 46/// /0303 11010 21071 30206 40218 50003=
0219010010999992016011318004+70939-008669FM-12+001099999V0201071N0050199999999025000199-00121-00601102241ADDAA112999999AY101061AY201061GA1011+006001081GA2999+999999001GE19MSL   +99999+99999GF102991011999006001999999KA1120M+00041KA2120N-00231MA1999999102121MD1310051+9999MW1021OC100691OD130601221999UA19999999049REMSYN004BUFR
0089010010999992016011319004+70933-008667FM-12+000999999V0203301N001019999999N999999999-00271-00731102261ADDMA1999999102141MD1310061+9999REMSYN04801001 46/// /3301 11027 21073 30214 40226 53006=
0089010010999992016011320004+70933-008667FM-12+000999999V0202501N003019999999N999999999-00241-00741102251ADDMA1999999102131MD1990071+9999REMSYN04801001 46/// /2503 11024 21074 30213 40225 50007=
0089010010999992016011321004+70933-008667FM-12+000999999V0202501N003019999999N999999999-00251-00761102261ADDMA1999999102141MD1310021+9999REMSYN04801001 46/// /2503 11025 21076 30214 40226 53002=
0093010010999992016011322004+70939-008669FM-12+001099999V0202901N0050199999999999999999-00371-00771102281ADDKA1010M-00221KA2010N-00381MA1999999102161MD1310021+9999OC100571OD130100641999REMSYN004BUFR
0085010010999992016011323004+70939-008669FM-12+001099999V0201231N0026199999999999999999-00251-00691102301ADDKA1010M-00201KA2010N-00421MA1999999102181MD1010051+9999OD130100601999REMSYN004BUFR
0228010010999992016011400004+70933-008667FM-12+000999999V0203501N002019999999N025000199-00211-00621102321ADDAA106000091AY101021AY201021GA1011+008001081GE19MSL   +99999+99999GF101991011999008001999999MA1999999102201MD1110051+9999MW1021OD139901001999REMSYN07601001 11575 13502 11021 21062 30220 40232 51005 60001 70200 81100 333 91110=
0071010010999992016011401004+70939-008669FM-12+001099999V0202841N0016199999999999999999-00271-00651102311ADDKA1010M-00221KA2010N-00361MA1999999102191MD1110031+9999REMSYN004BUFR
0089010010999992016011402004+70933-008667FM-12+000999999V0200101N005019999999N999999999-00211-00651102311ADDMA1999999102191MD1210021+9999REMSYN04801001 46/// /0105 11021 21065 30219 40231 52002=
0089010010999992016011403004+70933-008667FM-12+000999999V0202001N003019999999N999999999-00251-00751102291ADDMA1999999102171MD1810031+9999REMSYN04801001 46/// /2003 11025 21075 30217 40229 58003=
0089010010999992016011404004+70933-008667FM-12+000999999V0203601N004019999999N999999999-00211-00701102291ADDMA1999999102171MD1710021+9999REMSYN04801001 46/// /3604 11021 21070 30217 40229 57002=
0089010010999992016011405004+70933-008667FM-12+000999999V0203601N003019999999N999999999-00231-00761102281ADDMA1999999102161MD1710031+9999REMSYN04801001 46/// /3603 11023 21076 30216 40228 57003=
0212010010999992016011406004+70939-008669FM-12+001099999V0203431N0030199999999025000199-00271-00741102261ADDAA112999999AA224999999AY101061AY201061GA1011+010001081GE19MSL   +99999+99999GF101991011999010001999999IA1229KA1120M-00081KA2120N-00421MA1999999102141MD1810031+9999MW1021OD130600711999UA19999999039REMSYN004BUFR
0093010010999992016011407004+70939-008669FM-12+001099999V0203561N0043199999999999999999-00221-00821102251ADDKA1010M-00231KA2010N-00291MA1999999102131MD1710041+9999OC100531OD130100831999REMSYN004BUFR
0071010010999992016011408004+70939-008669FM-12+001099999V0203601N0026199999999999999999-00291-00781102241ADDKA1010M-00231KA2010N-00291MA1999999102121MD1510031+9999REMSYN004BUFR
0170010010999992016011409004+70939-008669FM-12+001099999V0203511N0021101000199025000199-00241-00711102261ADDAY121031AY201031GA1051+010001061GE19MSL   +99999+99999GF105991051999010001999999KA1010M-00231KA2010N-00291MA1999999102141MD1410001+9999MW1031UA19999999039REMSYN004BUFR
0089010010999992016011410004+70933-008667FM-12+000999999V0203501N003019999999N999999999-00341-00891102291ADDMA1999999102171MD1210041+9999REMSYN04801001 46/// /3503 11034 21089 30217 40229 52004=
0071010010999992016011411004+70939-008669FM-12+001099999V0203291N0016199999999999999999-00271-00811102261ADDKA1010M-00281KA2010N-00341MA1999999102141MD1010021+9999REMSYN004BUFR
0248010010999992016011412004+70933-008667FM-12+000999999V0200101N002019999999N025000199-00301-00761102241ADDAA106000091AY121021AY201021GA1071+012501061GE19MSL   +99999+99999GF107991071999012501999999MA1999999102121MD1810021+9999MW1021OD139900801999SA1+0091REMSYN08801001 11675 70102 11030 21076 30212 40224 58002 60001 70220 875// 222// 00009 333 91108=
0071010010999992016011413004+70939-008669FM-12+001099999V0200161N0009199999999999999999-00271-00731102231ADDKA1010M-00271KA2010N-00311MA1999999102111MD1710051+9999REMSYN004BUFR
0089010010999992016011414004+70933-008667FM-12+000999999V0203301N002019999999N999999999-00271-00741102231ADDMA1999999102111MD1710031+9999REMSYN04801001 46/// /3302 11027 21074 30211 40223 57003=
0187010010999992016011415004+70933-008667FM-12+000999999V0203001N002019999999N025000199-00261-00811102241ADDAY121021AY221021GA1071+012501061GE19MSL   +99999+99999GF107991071999012501999999MA1999999102121MD1410001+9999MW1021REMSYN06001001 41675 73002 11026 21081 30212 40224 54000 70222 875//=
0108010010999992016011416004+70933-008667FM-12+000999999V0203001N003019999999N999999999-00351-00821102231ADDMA1999999102111MD1410009+9999REMSYN04801001 46/// /3003 11035 21082 30211 40223 54001=EQDQ01.1    3APC3  
0089010010999992016011417004+70933-008667FM-12+000999999V0203401N005019999999N999999999-00251-00511102241ADDMA1999999102121MD1210011+9999REMSYN04801001 46/// /3405 11025 21051 30212 40224 52001=
0247010010999992016011418004+70933-008667FM-12+000999999V0203301N004019999999N030000199-00251-00591102261ADDAA112000131AY181021AY221021GA1051+008001081GE19MSL   +99999+99999GF105991051999008001999999KA1120M-00231MA1999999102141MD1310021+9999MW1011OD139900801999REMSYN08201001 11580 53304 11025 21059 30214 40226 53002 69912 70182 85800 333 11023 91108=
0093010010999992016011419004+70939-008669FM-12+001099999V0203291N0032199999999999999999-00271-00611102261ADDKA1010M-00251KA2010N-00291MA1999999102141MD1010041+9999OC100571OD130100711999REMSYN004BUFR
0093010010999992016011420004+70939-008669FM-12+001099999V0202981N0041199999999999999999-00291-00721102281ADDKA1010M-00271KA2010N-00301MA1999999102161MD1210041+9999OC100751OD130100751999REMSYN004BUFR
0089010010999992016011421004+70933-008667FM-12+000999999V0203201N003019999999N999999999-00321-00761102301ADDMA1999999102181MD1210031+9999REMSYN04801001 46/// /3203 11032 21076 30218 40230 52003=
0089010010999992016011422004+70933-008667FM-12+000999999V0202901N001019999999N999999999-00341-00781102311ADDMA1999999102191MD1210041+9999REMSYN04801001 46/// /2901 11034 21078 30219 40231 52004=
0089010010999992016011423004+70933-008667FM-12+000999999V0202801N002019999999N999999999-00431-00871102291ADDMA1999999102171MD1210011+9999REMSYN04801001 46/// /2802 11043 21087 30217 40229 52001=
0228010010999992016011500004+70933-008667FM-12+000999999V0202401N003019999999N030000199-00401-00851102261ADDAA106000091AY111021AY201021GA1021+012501061GE19MSL   +99999+99999GF102991021999012501999999MA1999999102141MD1810041+9999MW1021OD139900801999REMSYN07601001 11680 22403 11040 21085 30214 40226 58004 60001 70210 82500 333 91108=
0089010010999992016011501004+70933-008667FM-12+000999999V0202601N004019999999N999999999-00281-00721102251ADDMA1999999102131MD1710051+9999REMSYN04801001 46/// /2604 11028 21072 30213 40225 57005=
0089010010999992016011502004+70933-008667FM-12+000999999V0202601N004019999999N999999999-00271-00761102231ADDMA1999999102111MD1710071+9999REMSYN04801001 46/// /2604 11027 21076 30211 40223 57007=
0089010010999992016011503004+70933-008667FM-12+000999999V0202301N005019999999N999999999-00261-00621102221ADDMA1999999102101MD1710041+9999REMSYN04801001 46/// /2305 11026 21062 30210 40222 57004=
0089010010999992016011504004+70933-008667FM-12+000999999V0202301N003019999999N999999999-00311-00601102201ADDMA1999999102081MD1710061+9999REMSYN04801001 46/// /2303 11031 21060 30208 40220 57006=
0089010010999992016011505004+70933-008667FM-12+000999999V0202301N003019999999N999999999-00291-00551102161ADDMA1999999102041MD1810071+9999REMSYN04801001 46/// /2303 11029 21055 30204 40216 58007=
0293010010999992016011506004+70933-008667FM-12+000999999V0202401N004019999999N030000199-00271-00721102141ADDAA112000531AA224000631AJ199991999999999AY181021AY211021GA1031+012501081GE19MSL   +99999+99999GF103991031999012501999999IA1229KA1240N-00461MA1999999102021MD1710071+9999MW1011OD139900901999REMSYN09401001 11680 32404 11027 21072 30202 40214 57007 69952 70181 83800 333 21046 46999 70006 91109=
0089010010999992016011507004+70933-008667FM-12+000999999V0202601N003019999999N999999999-00271-00801102131ADDMA1999999102011MD1710061+9999REMSYN04801001 46/// /2603 11027 21080 30201 40213 57006=
0089010010999992016011508004+70933-008667FM-12+000999999V0202301N006019999999N999999999-00281-00751102141ADDMA1999999102021MD1710011+9999REMSYN04801001 46/// /2306 11028 21075 30202 40214 57001=
0206010010999992016011509004+70933-008667FM-12+000999999V0202401N006019999999N030000199-00271-00761102151ADDAY101021AY201021GA1031+008001081GE19MSL   +99999+99999GF103991031999008001999999MA1999999102031MD1290019+9999MW1021REMSYN06001001 41580 32406 11027 21076 30203 40215 54001 70200 83200=EQDQ01.1    3APC3  
0089010010999992016011510004+70933-008667FM-12+000999999V0202501N004019999999N999999999-00291-00781102151ADDMA1999999102031MD1210021+9999REMSYN04801001 46/// /2504 11029 21078 30203 40215 52002=
0089010010999992016011511004+70933-008667FM-12+000999999V0202601N004019999999N999999999-00281-00741102101ADDMA1999999101981MD1810041+9999REMSYN04801001 46/// /2604 11028 21074 30198 40210 58004=
0244010010999992016011512004+70933-008667FM-12+000999999V0202301N005019999999N025000199-00231-00641102061ADDAA106000091AY121021AY201021GA1061+012501081GA2999+999999031GE19MSL   +99999+99999GF107991061999012501999999MA1999999101941MD1810081+9999MW1021OD139901001999REMSYN07601001 11675 72305 11023 21064 30194 40206 58008 60001 70220 86830 333 91110=
0089010010999992016011513004+70933-008667FM-12+000999999V0202501N006019999999N999999999-00151-00481102021ADDMA1999999101901MD1710131+9999REMSYN04801001 46/// /2506 11015 21048 30190 40202 57013=
0089010010999992016011514004+70933-008667FM-12+000999999V0202401N008019999999N999999999-00131-00481102011ADDMA1999999101891MD1610091+9999REMSYN04801001 46/// /2408 11013 21048 30189 40201 56009=
0187010010999992016011515004+70933-008667FM-12+000999999V0202401N008019999999N025000199-00101-00511101991ADDAY121021AY221021GA1061+008001081GE19MSL   +99999+99999GF106991061999008001999999MA1999999101871MD1610071+9999MW1021REMSYN06001001 41575 62408 11010 21051 30187 40199 56007 70222 86800=
0089010010999992016011516004+70933-008667FM-12+000999999V0202601N006019999999N999999999-00101-00501102001ADDMA1999999101881MD1710021+9999REMSYN04801001 46/// /2606 11010 21050 30188 40200 57002=
0089010010999992016011517004+70933-008667FM-12+000999999V0202401N007019999999N999999999-00101-00481101981ADDMA1999999101861MD1710031+9999REMSYN04801001 46/// /2407 11010 21048 30186 40198 57003=
0203010010999992016011518004+70933-008667FM-12+000999999V0202501N00801000601CN000300199-00161-00281101961ADDAA112000831AY171021AY221021GF109991999999999999999999KA1120M-00091MA1999999101841MD1810041+9999MW1741OD139901701999REMSYN07601001 11/03 92508 11016 21028 30184 40196 58004 69982 77472 333 11009 91117=
0089010010999992016011519004+70933-008667FM-12+000999999V0202401N007019999999N999999999-00101-00351101941ADDMA1999999101821MD1810061+9999REMSYN04801001 46/// /2407 11010 21035 30182 40194 58006=
0093010010999992016011520004+70939-008669FM-12+001099999V0202331N0062199999999999999999-00101-00581101961ADDKA1010M-00091KA2010N-00121MA1999999101841MD1510021+9999OC101011OD130101211999REMSYN004BUFR
0108010010999992016011521004+70933-008667FM-12+000999999V0202301N007019999999N999999999-00101-00611101961ADDMA1999999101841MD1410009+9999REMSYN04801001 46/// /2307 11010 21061 30184 40196 54001=EQDQ01.1    3APC3  
0089010010999992016011522004+70933-008667FM-12+000999999V0202401N005019999999N999999999-00131-00491101951ADDMA1999999101831MD1990011+9999REMSYN04801001 46/// /2405 11013 21049 30183 40195 50001=
0089010010999992016011523004+70933-008667FM-12+000999999V0202301N006019999999N999999999-00111-00641101921ADDMA1999999101801MD1810041+9999REMSYN04801001 46/// /2306 11011 21064 30180 40192 58004=
0228010010999992016011600004+70933-008667FM-12+000999999V0202401N006019999999N010000199-00081-00671101881ADDAA106000731AY171021AY221021GA1061+017501061GE19MSL   +99999+99999GF106991061999017501999999MA1999999101761MD1810081+9999MW1021OD139901401999REMSYN07601001 11760 62406 11008 21067 30176 40188 58008 69971 70272 86500 333 91114=
0089010010999992016011601004+70933-008667FM-12+000999999V0202301N004019999999N999999999-00171-00731101811ADDMA1999999101691MD1810151+9999REMSYN04801001 46/// /2304 11017 21073 30169 40181 58015=
0089010010999992016011602004+70933-008667FM-12+000999999V0202401N008019999999N999999999-00181-00531101811ADDMA1999999101691MD1610121+9999REMSYN04801001 46/// /2408 11018 21053 30169 40181 56012=
0089010010999992016011603004+70933-008667FM-12+000999999V0202701N005019999999N999999999-00171-00491101741ADDMA1999999101621MD1610141+9999REMSYN04801001 46/// /2705 11017 21049 30162 40174 56014=
0089010010999992016011604004+70933-008667FM-12+000999999V0202601N004019999999N999999999-00151-00611101701ADDMA1999999101581MD1810111+9999REMSYN04801001 46/// /2604 11015 21061 30158 40170 58011=
0089010010999992016011605004+70933-008667FM-12+000999999V0202601N003019999999N999999999-00151-00601101681ADDMA1999999101561MD1610121+9999REMSYN04801001 46/// /2603 11015 21060 30156 40168 56012=
0293010010999992016011606004+70933-008667FM-12+000999999V0202501N004019999999N010000199-00181-00671101661ADDAA112000731AA224001531AJ199991999999999AY181021AY221021GA1061+008001061GE19MSL   +99999+99999GF106991061999008001999999IA1229KA1240N-00201MA1999999101541MD1710081+9999MW1021OD139901301999REMSYN09401001 11560 62504 11018 21067 30154 40166 57008 69972 70282 86500 333 21020 46999 70015 91113=
0089010010999992016011607004+70933-008667FM-12+000999999V0202801N006019999999N999999999-00221-00691101681ADDMA1999999101561MD1510011+9999REMSYN04801001 46/// /2806 11022 21069 30156 40168 55001=
0089010010999992016011608004+70933-008667FM-12+000999999V0202801N005019999999N999999999-00271-00741101711ADDMA1999999101591MD1310021+9999REMSYN04801001 46/// /2805 11027 21074 30159 40171 53002=
0187010010999992016011609004+70933-008667FM-12+000999999V0202901N005019999999N010000199-00321-00741101741ADDAY121021AY221021GA1071+008001061GE19MSL   +99999+99999GF107991071999008001999999MA1999999101621MD1310091+9999MW1021REMSYN06001001 41560 72905 11032 21074 30162 40174 53009 70222 875//=
0089010010999992016011610004+70933-008667FM-12+000999999V0203501N007019999999N999999999-00321-00711101801ADDMA1999999101681MD1310111+9999REMSYN04801001 46/// /3507 11032 21071 30168 40180 53011=
0093010010999992016011611004+70939-008669FM-12+001099999V0203471N0094199999999999999999-00371-00771101831ADDKA1010M-00321KA2010N-00381MA1999999101711MD1210141+9999OC101421OD130101481999REMSYN004BUFR
0219010010999992016011612004+70939-008669FM-12+001099999V0203461N0085100600199020000199-00451-00821101901ADDAA106999999AY121061AY221061GA1061+006001081GA2999+999999021GE19MSL   +99999+99999GF107991061999006001999999KA1010M-00381KA2010N-00461MA1999999101781MD1310151+9999MW1021OC101381OD130601571999UA19999999039REMSYN004BUFR
0089010010999992016011613004+70933-008667FM-12+000999999V0203401N009019999999N999999999-00531-00911101941ADDMA1999999101821MD1210151+9999REMSYN04801001 46/// /3409 11053 21091 30182 40194 52015=
0093010010999992016011614004+70939-008669FM-12+001099999V0203291N0081199999999999999999-00601-00991102001ADDKA1010M-00531KA2010N-00611MA1999999101881MD1210161+9999OC101381OD130101391999REMSYN004BUFR
0187010010999992016011615004+70933-008667FM-12+000999999V0203301N008019999999N015000199-00671-01021102031ADDAY121021AY221021GA1061+008001081GE19MSL   +99999+99999GF106991061999008001999999MA1999999101911MD1210121+9999MW1021REMSYN06001001 41565 63308 11067 21102 30191 40203 52012 70222 86800=
0093010010999992016011616004+70939-008669FM-12+001099999V0203361N0099199999999999999999-00721-01151102061ADDKA1010M-00671KA2010N-00731MA1999999101941MD1210121+9999OC101441OD130101471999REMSYN004BUFR
0093010010999992016011617004+70939-008669FM-12+001099999V0203431N0089199999999999999999-00701-00991102091ADDKA1010M-00701KA2010N-00731MA1999999101971MD1210101+9999OC101351OD130101551999REMSYN004BUFR
0247010010999992016011618004+70933-008667FM-12+000999999V0203401N009019999999N010000199-00691-01101102141ADDAA112000021AY181021AY221021GA1071+008001081GE19MSL   +99999+99999GF107991071999008001999999KA1120M-00191MA1999999102021MD1310121+9999MW1261OD139901601999REMSYN08201001 11560 73409 11069 21110 30202 40214 53012 69902 72682 878// 333 11019 91116=
0093010010999992016011619004+70939-008669FM-12+001099999V0203411N0084199999999999999999-00651-00961102201ADDKA1010M-00651KA2010N-00691MA1999999102081MD1310141+9999OC101351OD130101381999REMSYN004BUFR
0089010010999992016011620004+70933-008667FM-12+000999999V0203401N009019999999N999999999-00661-00971102251ADDMA1999999102131MD1310161+9999REMSYN04801001 46/// /3409 11066 21097 30213 40225 53016=
0089010010999992016011621004+70933-008667FM-12+000999999V0203401N008019999999N999999999-00591-00981102281ADDMA1999999102161MD1210141+9999REMSYN04801001 46/// /3408 11059 21098 30216 40228 52014=
0089010010999992016011622004+70933-008667FM-12+000999999V0203401N009019999999N999999999-00551-00801102301ADDMA1999999102181MD1210111+9999REMSYN04801001 46/// /3409 11055 21080 30218 40230 52011=
0089010010999992016011623004+70933-008667FM-12+000999999V0203301N008019999999N999999999-00561-00861102391ADDMA1999999102271MD1310141+9999REMSYN04801001 46/// /3308 11056 21086 30227 40239 53014=
0228010010999992016011700004+70933-008667FM-12+000999999V0203401N008019999999N008000199-00591-00991102411ADDAA106000131AY181021AY231021GA1071+004501091GE19MSL   +99999+99999GF107991071999004501999999MA1999999102291MD1310131+9999MW1851OD139901501999REMSYN07601001 11458 73408 11059 21099 30229 40241 53013 69911 78583 873// 333 91115=
0093010010999992016011701004+70939-008669FM-12+001099999V0203381N0081199999999999999999-00621-01161102451ADDKA1010M-00581KA2010N-00621MA1999999102331MD1110141+9999OC101121OD130101311999REMSYN004BUFR
0089010010999992016011702004+70933-008667FM-12+000999999V0203401N008019999999N999999999-00611-01141102501ADDMA1999999102381MD1310111+9999REMSYN04801001 46/// /3408 11061 21114 30238 40250 53011=
0093010010999992016011703004+70939-008669FM-12+001099999V0203441N0075199999999999999999-00671-01231102551ADDKA1010M-00611KA2010N-00671MA1999999102431MD1310131+9999OC101191OD130101301999REMSYN004BUFR
0089010010999992016011704004+70933-008667FM-12+000999999V0203501N007019999999N999999999-00701-01231102551ADDMA1999999102431MD1110111+9999REMSYN04801001 46/// /3507 11070 21123 30243 40255 51011=
0093010010999992016011705004+70939-008669FM-12+001099999V0203511N0075199999999999999999-00751-01281102561ADDKA1010M-00711KA2010N-00751MA1999999102441MD1110061+9999OC101061OD130101331999REMSYN004BUFR
0293010010999992016011706004+70933-008667FM-12+000999999V0203401N009019999999N010000199-00771-01281102581ADDAA112000131AA224000131AJ199991999999999AY181021AY221021GA1071+008001091GE19MSL   +99999+99999GF107991071999008001999999IA1299KA1240N-00771MA1999999102461MD1210031+9999MW1851OD139901501999REMSYN09401001 11560 73409 11077 21128 30246 40258 52003 69912 78582 873// 333 21077 49999 70001 91115=
0089010010999992016011707004+70933-008667FM-12+000999999V0203401N008019999999N999999999-00781-01301102581ADDMA1999999102461MD1210021+9999REMSYN04801001 46/// /3408 11078 21130 30246 40258 52002=
0089010010999992016011708004+70933-008667FM-12+000999999V0203401N007019999999N999999999-00771-01171102591ADDMA1999999102471MD1210041+9999REMSYN04801001 46/// /3407 11077 21117 30247 40259 52004=
0187010010999992016011709004+70933-008667FM-12+000999999V0203401N009019999999N010000199-00781-01261102601ADDAY181021AY221021GA1071+008001081GE19MSL   +99999+99999GF107991071999008001999999MA1999999102481MD1210031+9999MW1021REMSYN06001001 41560 73409 11078 21126 30248 40260 52003 70282 872//=
0089010010999992016011710004+70933-008667FM-12+000999999V0203401N006019999999N999999999-00791-01251102601ADDMA1999999102481MD1210021+9999REMSYN04801001 46/// /3406 11079 21125 30248 40260 52002=
0089010010999992016011711004+70933-008667FM-12+000999999V0203601N008019999999N999999999-00821-01311102591ADDMA1999999102471MD1410001+9999REMSYN04801001 46/// /3608 11082 21131 30247 40259 54000=
0248010010999992016011712004+70933-008667FM-12+000999999V0203501N007019999999N020000199-00831-01311102551ADDAA106000021AY181021AY231021GA1071+008001081GE19MSL   +99999+99999GF107991071999008001999999MA1999999102431MD1810051+9999MW1361OD139901401999SA1+0071REMSYN08801001 11570 73507 11083 21131 30243 40255 58005 69901 73683 872// 222// 00007 333 91114=
0089010010999992016011713004+70933-008667FM-12+000999999V0203601N007019999999N999999999-00841-01291102531ADDMA1999999102411MD1710071+9999REMSYN04801001 46/// /3607 11084 21129 30241 40253 57007=
0089010010999992016011714004+70933-008667FM-12+000999999V0203601N006019999999N999999999-00831-01281102511ADDMA1999999102391MD1610081+9999REMSYN04801001 46/// /3606 11083 21128 30239 40251 56008=
0187010010999992016011715004+70933-008667FM-12+000999999V0203401N008019999999N025000199-00811-01321102501ADDAY131021AY221021GA1071+008001081GE19MSL   +99999+99999GF107991071999008001999999MA1999999102381MD1710051+9999MW1021REMSYN06001001 41575 73408 11081 21132 30238 40250 57005 70232 872//=
0093010010999992016011716004+70939-008669FM-12+001099999V0203491N0070199999999999999999-00821-01351102491ADDKA1010M-00811KA2010N-00821MA1999999102371MD1710041+9999OC101021OD130101221999REMSYN004BUFR
0093010010999992016011717004+70939-008669FM-12+001099999V0203511N0064199999999999999999-00801-01311102441ADDKA1010M-00801KA2010N-00821MA1999999102321MD1810071+9999OC101091OD130101431999REMSYN004BUFR
0247010010999992016011718004+70933-008667FM-12+000999999V0200101N008019999999N015000199-00801-01351102431ADDAA112000021AY171021AY231021GA1071+012501061GE19MSL   +99999+99999GF107991071999012501999999KA1120M-00761MA1999999102311MD1710071+9999MW1781OD139901401999REMSYN08201001 11665 70108 11080 21135 30231 40243 57007 69902 77873 875// 333 11076 91114=
0089010010999992016011719004+70933-008667FM-12+000999999V0203401N007019999999N999999999-00801-01371102461ADDMA1999999102341MD1510031+9999REMSYN04801001 46/// /3407 11080 21137 30234 40246 55003=
0093010010999992016011720004+70939-008669FM-12+001099999V0203451N0067199999999999999999-00771-01331102441ADDKA1010M-00771KA2010N-00791MA1999999102321MD1010001+9999OC101051OD130101081999REMSYN004BUFR
0089010010999992016011721004+70933-008667FM-12+000999999V0203501N006019999999N999999999-00781-01281102421ADDMA1999999102301MD1990011+9999REMSYN04801001 46/// /3506 11078 21128 30230 40242 50001=
0089010010999992016011722004+70933-008667FM-12+000999999V0203601N007019999999N999999999-00781-01321102401ADDMA1999999102281MD1710071+9999REMSYN04801001 46/// /3607 11078 21132 30228 40240 57007=
0089010010999992016011723004+70933-008667FM-12+000999999V0203301N005019999999N999999999-00771-01311102371ADDMA1999999102251MD1710071+9999REMSYN04801001 46/// /3305 11077 21131 30225 40237 57007=
0228010010999992016011800004+70933-008667FM-12+000999999V0203501N006019999999N015000199-00771-01311102361ADDAA106000021AY171021AY221021GA1071+012501061GE19MSL   +99999+99999GF107991071999012501999999MA1999999102241MD1610061+9999MW1781OD139901201999REMSYN07601001 11665 73506 11077 21131 30224 40236 56006 69901 77872 875// 333 91112=
0093010010999992016011801004+70939-008669FM-12+001099999V0200061N0071199999999999999999-00771-01341102351ADDKA1010M-00751KA2010N-00771MA1999999102231MD1710041+9999OC100981OD130101041999REMSYN004BUFR
0093010010999992016011802004+70939-008669FM-12+001099999V0203451N0066199999999999999999-00751-01321102301ADDKA1010M-00751KA2010N-00771MA1999999102181MD1810071+9999OC101241OD130101241999REMSYN004BUFR
0089010010999992016011803004+70933-008667FM-12+000999999V0203501N005019999999N999999999-00761-01301102281ADDMA1999999102161MD1710091+9999REMSYN04801001 46/// /3505 11076 21130 30216 40228 57009=
0089010010999992016011804004+70933-008667FM-12+000999999V0203501N005019999999N999999999-00761-01341102211ADDMA1999999102091MD1810141+9999REMSYN04801001 46/// /3505 11076 21134 30209 40221 58014=
0089010010999992016011805004+70933-008667FM-12+000999999V0203301N005019999999N999999999-00761-01361102171ADDMA1999999102051MD1810131+9999REMSYN04801001 46/// /3305 11076 21136 30205 40217 58013=
0293010010999992016011806004+70933-008667FM-12+000999999V0203601N006019999999N015000199-00751-01291102171ADDAA112000021AA224000021AJ199991999999999AY171021AY221021GA1071+012501061GE19MSL   +99999+99999GF107991071999012501999999IA1229KA1240N-00811MA1999999102051MD1610111+9999MW1781OD139901201999REMSYN09401001 11665 73606 11075 21129 30205 40217 56011 69902 77872 875// 333 21081 46999 79999 91112=
0093010010999992016011807004+70939-008669FM-12+001099999V0200101N0034199999999999999999-00771-01341102131ADDKA1010M-00741KA2010N-00781MA1999999102011MD1710081+9999OC100551OD130100811999REMSYN004BUFR
0089010010999992016011808004+70933-008667FM-12+000999999V0203501N005019999999N999999999-00751-01311102151ADDMA1999999102031MD1510031+9999REMSYN04801001 46/// /3505 11075 21131 30203 40215 55003=
0187010010999992016011809004+70933-008667FM-12+000999999V0203401N004019999999N020000199-00751-01331102151ADDAY121021AY221021GA1061+012501061GE19MSL   +99999+99999GF106991061999012501999999MA1999999102031MD1510021+9999MW1011REMSYN06001001 41670 63404 11075 21133 30203 40215 55002 70122 86400=
0089010010999992016011810004+70933-008667FM-12+000999999V0203401N006019999999N999999999-00731-01341102121ADDMA1999999102001MD1810011+9999REMSYN04801001 46/// /3406 11073 21134 30200 40212 58001=
0089010010999992016011811004+70933-008667FM-12+000999999V0200101N005019999999N999999999-00761-01351102061ADDMA1999999101941MD1810081+9999REMSYN04801001 46/// /0105 11076 21135 30194 40206 58008=
0248010010999992016011812004+70933-008667FM-12+000999999V0203601N006019999999N020000199-00711-01241102091ADDAA106000091AY121021AY201021GA1051+012501061GE19MSL   +99999+99999GF105991051999012501999999MA1999999101971MD1510051+9999MW1021OD139901001999SA1+0061REMSYN08801001 11670 53606 11071 21124 30197 40209 55005 60001 70220 85500 222// 00006 333 91110=
0093010010999992016011813004+70939-008669FM-12+001099999V0203481N0047199999999999999999-00701-01291102071ADDKA1010M-00711KA2010N-00731MA1999999101951MD1510041+9999OC100701OD130100901999REMSYN004BUFR
0089010010999992016011814004+70933-008667FM-12+000999999V0203501N006019999999N999999999-00691-01241102041ADDMA1999999101921MD1810031+9999REMSYN04801001 46/// /3506 11069 21124 30192 40204 58003=
0187010010999992016011815004+70933-008667FM-12+000999999V0203501N006019999999N020000199-00681-01281101991ADDAY121021AY221021GA1051+012501061GE19MSL   +99999+99999GF105991051999012501999999MA1999999101871MD1810111+9999MW1021REMSYN06001001 41670 53506 11068 21128 30187 40199 58011 70222 85500=
0089010010999992016011816004+70933-008667FM-12+000999999V0203401N005019999999N999999999-00651-01201101981ADDMA1999999101861MD1610091+9999REMSYN04801001 46/// /3405 11065 21120 30186 40198 56009=
0089010010999992016011817004+70933-008667FM-12+000999999V0200101N006019999999N999999999-00641-01201101971ADDMA1999999101851MD1710061+9999REMSYN04801001 46/// /0106 11064 21120 30185 40197 57006=
0247010010999992016011818004+70933-008667FM-12+000999999V0203601N007019999999N025000199-00641-01161101931ADDAA112000091AY121021AY211021GA1061+008001061GE19MSL   +99999+99999GF106991061999008001999999KA1120M-00631MA1999999101811MD1810051+9999MW1021OD139901101999REMSYN08201001 11575 63607 11064 21116 30181 40193 58005 60002 70221 86500 333 11063 91111=
0089010010999992016011819004+70933-008667FM-12+000999999V0203601N006019999999N999999999-00661-01181101941ADDMA1999999101821MD1510031+9999REMSYN04801001 46/// /3606 11066 21118 30182 40194 55003=
0089010010999992016011820004+70933-008667FM-12+000999999V0203401N007019999999N999999999-00681-01251101941ADDMA1999999101821MD1510031+9999REMSYN04801001 46/// /3407 11068 21125 30182 40194 55003=
0089010010999992016011821004+70933-008667FM-12+000999999V0203501N006019999999N999999999-00691-01231101921ADDMA1999999101801MD1810021+9999REMSYN04801001 46/// /3506 11069 21123 30180 40192 58002=
0089010010999992016011822004+70933-008667FM-12+000999999V0203401N008019999999N999999999-00721-01341101911ADDMA1999999101791MD1810041+9999REMSYN04801001 46/// /3408 11072 21134 30179 40191 58004=
0093010010999992016011823004+70939-008669FM-12+001099999V0203471N0075199999999999999999-00771-01341101891ADDKA1010M-00721KA2010N-00781MA1999999101771MD1710051+9999OC101151OD130101151999REMSYN004BUFR
0228010010999992016011900004+70933-008667FM-12+000999999V0203401N009019999999N030000199-00811-01331101841ADDAA106000091AY121021AY201021GA1011+012501081GE19MSL   +99999+99999GF101991011999012501999999MA1999999101721MD1810071+9999MW1011OD139901301999REMSYN07601001 11680 13409 11081 21133 30172 40184 58007 60001 70120 81100 333 91113=
0089010010999992016011901004+70933-008667FM-12+000999999V0203601N006019999999N999999999-00801-01301101891ADDMA1999999101771MD1510021+9999REMSYN04801001 46/// /3606 11080 21130 30177 40189 55002=
0089010010999992016011902004+70933-008667FM-12+000999999V0203401N008019999999N999999999-00801-01281101881ADDMA1999999101761MD1510021+9999REMSYN04801001 46/// /3408 11080 21128 30176 40188 55002=
0089010010999992016011903004+70933-008667FM-12+000999999V0203601N007019999999N999999999-00801-01211101871ADDMA1999999101751MD1990031+9999REMSYN04801001 46/// /3607 11080 21121 30175 40187 50003=
0089010010999992016011904004+70933-008667FM-12+000999999V0203501N005019999999N999999999-00811-01231101851ADDMA1999999101731MD1710031+9999REMSYN04801001 46/// /3505 11081 21123 30173 40185 57003=
0089010010999992016011905004+70933-008667FM-12+000999999V0203501N005019999999N999999999-00821-01271101861ADDMA1999999101741MD1510021+9999REMSYN04801001 46/// /3505 11082 21127 30174 40186 55002=
0293010010999992016011906004+70933-008667FM-12+000999999V0203401N004019999999N030000199-00821-01291101861ADDAA112000091AA224000091AJ199991999999999AY101021AY201021GA1021+008001081GE19MSL   +99999+99999GF102991021999008001999999IA1229KA1240N-00841MA1999999101741MD1410001+9999MW1021OD139901201999REMSYN09401001 11580 23404 11082 21129 30174 40186 54000 60002 70200 82100 333 21084 46999 70000 91112=
0093010010999992016011907004+70939-008669FM-12+001099999V0200101N0043199999999999999999-00791-01261101901ADDKA1010M-00781KA2010N-00811MA1999999101781MD1310051+9999OC100581OD130100891999REMSYN004BUFR
0093010010999992016011908004+70939-008669FM-12+001099999V0200041N0039199999999999999999-00771-01251101901ADDKA1010M-00761KA2010N-00791MA1999999101781MD1310041+9999OC100501OD130100701999REMSYN004BUFR
